{
  "contractName": "Structregistry",
  "abi": [
    {
      "anonymous": false,
      "inputs": [
        {
          "indexed": true,
          "internalType": "address",
          "name": "from",
          "type": "address"
        },
        {
          "indexed": true,
          "internalType": "string",
          "name": "vin",
          "type": "string"
        }
      ],
      "name": "Creation",
      "type": "event"
    },
    {
      "anonymous": false,
      "inputs": [
        {
          "indexed": true,
          "internalType": "address",
          "name": "from",
          "type": "address"
        },
        {
          "indexed": true,
          "internalType": "address",
          "name": "to",
          "type": "address"
        },
        {
          "indexed": true,
          "internalType": "string",
          "name": "vin",
          "type": "string"
        }
      ],
      "name": "Transfer",
      "type": "event"
    },
    {
      "inputs": [
        {
          "internalType": "address",
          "name": "account",
          "type": "address"
        }
      ],
      "name": "add_accountMech",
      "outputs": [],
      "stateMutability": "nonpayable",
      "type": "function"
    },
    {
      "inputs": [
        {
          "internalType": "address",
          "name": "account",
          "type": "address"
        }
      ],
      "name": "add_accountUser",
      "outputs": [],
      "stateMutability": "nonpayable",
      "type": "function"
    },
    {
      "inputs": [
        {
          "internalType": "address",
          "name": "Account",
          "type": "address"
        },
        {
          "internalType": "string",
          "name": "name",
          "type": "string"
        },
        {
          "internalType": "string",
          "name": "gender",
          "type": "string"
        },
        {
          "internalType": "string",
          "name": "Address",
          "type": "string"
        },
        {
          "internalType": "string",
          "name": "phone",
          "type": "string"
        },
        {
          "internalType": "string",
          "name": "password",
          "type": "string"
        }
      ],
      "name": "add_user",
      "outputs": [],
      "stateMutability": "nonpayable",
      "type": "function"
    },
    {
      "inputs": [
        {
          "internalType": "address",
          "name": "Account",
          "type": "address"
        },
        {
          "internalType": "string",
          "name": "name",
          "type": "string"
        },
        {
          "internalType": "string",
          "name": "gender",
          "type": "string"
        },
        {
          "internalType": "string",
          "name": "Address",
          "type": "string"
        },
        {
          "internalType": "string",
          "name": "phone",
          "type": "string"
        },
        {
          "internalType": "string",
          "name": "garage",
          "type": "string"
        }
      ],
      "name": "add_mech",
      "outputs": [],
      "stateMutability": "nonpayable",
      "type": "function"
    },
    {
      "inputs": [
        {
          "internalType": "string",
          "name": "id",
          "type": "string"
        },
        {
          "internalType": "address",
          "name": "add",
          "type": "address"
        }
      ],
      "name": "GrantViewPermission",
      "outputs": [],
      "stateMutability": "nonpayable",
      "type": "function"
    },
    {
      "inputs": [
        {
          "internalType": "string",
          "name": "id",
          "type": "string"
        }
      ],
      "name": "viewAllowed",
      "outputs": [
        {
          "internalType": "address[]",
          "name": "",
          "type": "address[]"
        }
      ],
      "stateMutability": "view",
      "type": "function",
      "constant": true
    },
    {
      "inputs": [
        {
          "internalType": "string",
          "name": "id",
          "type": "string"
        }
      ],
      "name": "viewAllOwner",
      "outputs": [
        {
          "internalType": "address[]",
          "name": "",
          "type": "address[]"
        }
      ],
      "stateMutability": "nonpayable",
      "type": "function"
    },
    {
      "inputs": [
        {
          "internalType": "string",
          "name": "id",
          "type": "string"
        },
        {
          "internalType": "address",
          "name": "account",
          "type": "address"
        }
      ],
      "name": "RevokeViewPermission",
      "outputs": [],
      "stateMutability": "nonpayable",
      "type": "function"
    },
    {
      "inputs": [
        {
          "internalType": "address",
          "name": "Account",
          "type": "address"
        }
      ],
      "name": "getPassword",
      "outputs": [
        {
          "internalType": "string",
          "name": "",
          "type": "string"
        },
        {
          "internalType": "string",
          "name": "",
          "type": "string"
        }
      ],
      "stateMutability": "view",
      "type": "function",
      "constant": true
    },
    {
      "inputs": [
        {
          "internalType": "address",
          "name": "Account",
          "type": "address"
        }
      ],
      "name": "viewUser",
      "outputs": [
        {
          "internalType": "string",
          "name": "",
          "type": "string"
        },
        {
          "internalType": "string",
          "name": "",
          "type": "string"
        },
        {
          "internalType": "string",
          "name": "",
          "type": "string"
        },
        {
          "internalType": "string",
          "name": "",
          "type": "string"
        },
        {
          "internalType": "string",
          "name": "",
          "type": "string"
        }
      ],
      "stateMutability": "nonpayable",
      "type": "function"
    },
    {
      "inputs": [
        {
          "internalType": "address",
          "name": "Account",
          "type": "address"
        }
      ],
      "name": "viewMechanic",
      "outputs": [
        {
          "internalType": "string",
          "name": "",
          "type": "string"
        },
        {
          "internalType": "string",
          "name": "",
          "type": "string"
        },
        {
          "internalType": "string",
          "name": "",
          "type": "string"
        },
        {
          "internalType": "string",
          "name": "",
          "type": "string"
        },
        {
          "internalType": "string",
          "name": "",
          "type": "string"
        }
      ],
      "stateMutability": "nonpayable",
      "type": "function"
    },
    {
      "inputs": [
        {
          "internalType": "address",
          "name": "owner",
          "type": "address"
        },
        {
          "internalType": "string",
          "name": "vin",
          "type": "string"
        },
        {
          "internalType": "string",
          "name": "brand_name",
          "type": "string"
        },
        {
          "internalType": "string",
          "name": "model_name",
          "type": "string"
        },
        {
          "internalType": "string",
          "name": "purchase_date",
          "type": "string"
        },
        {
          "internalType": "string",
          "name": "owner_name",
          "type": "string"
        },
        {
          "internalType": "string",
          "name": "isFirstHandOwner",
          "type": "string"
        }
      ],
      "name": "addCar",
      "outputs": [],
      "stateMutability": "nonpayable",
      "type": "function"
    },
    {
      "inputs": [],
      "name": "getVin",
      "outputs": [
        {
          "internalType": "string[]",
          "name": "",
          "type": "string[]"
        }
      ],
      "stateMutability": "nonpayable",
      "type": "function"
    },
    {
      "inputs": [],
      "name": "getUsers",
      "outputs": [
        {
          "internalType": "address[]",
          "name": "",
          "type": "address[]"
        }
      ],
      "stateMutability": "nonpayable",
      "type": "function"
    },
    {
      "inputs": [],
      "name": "getMechanics",
      "outputs": [
        {
          "internalType": "address[]",
          "name": "",
          "type": "address[]"
        }
      ],
      "stateMutability": "nonpayable",
      "type": "function"
    },
    {
      "inputs": [
        {
          "internalType": "string",
          "name": "vin",
          "type": "string"
        }
      ],
      "name": "viewCar",
      "outputs": [
        {
          "internalType": "address",
          "name": "owner",
          "type": "address"
        },
        {
          "internalType": "string",
          "name": "brand_name",
          "type": "string"
        },
        {
          "internalType": "string",
          "name": "model_name",
          "type": "string"
        },
        {
          "internalType": "string",
          "name": "purchase_date",
          "type": "string"
        },
        {
          "internalType": "string",
          "name": "owner_name",
          "type": "string"
        },
        {
          "internalType": "string",
          "name": "isFirstHandOwner",
          "type": "string"
        }
      ],
      "stateMutability": "nonpayable",
      "type": "function"
    },
    {
      "inputs": [
        {
          "internalType": "string",
          "name": "vin",
          "type": "string"
        },
        {
          "internalType": "address",
          "name": "owner",
          "type": "address"
        },
        {
          "internalType": "string",
          "name": "new_owner_name",
          "type": "string"
        }
      ],
      "name": "transferOwnership",
      "outputs": [],
      "stateMutability": "nonpayable",
      "type": "function"
    },
    {
      "inputs": [
        {
          "internalType": "string",
          "name": "vin",
          "type": "string"
        },
        {
          "internalType": "string",
          "name": "vehicleCondition",
          "type": "string"
        },
        {
          "internalType": "string",
          "name": "currentOdometer",
          "type": "string"
        },
        {
          "internalType": "string",
          "name": "currentEngineHours",
          "type": "string"
        },
        {
          "internalType": "string",
          "name": "lastService",
          "type": "string"
        },
        {
          "internalType": "string",
          "name": "ServiceType",
          "type": "string"
        },
        {
          "internalType": "string",
          "name": "partsReplaced",
          "type": "string"
        },
        {
          "internalType": "string",
          "name": "cost",
          "type": "string"
        },
        {
          "internalType": "string",
          "name": "isUnderInsurance",
          "type": "string"
        },
        {
          "internalType": "string",
          "name": "Message",
          "type": "string"
        }
      ],
      "name": "updateMaintenanceReport",
      "outputs": [],
      "stateMutability": "nonpayable",
      "type": "function"
    },
    {
      "inputs": [
        {
          "internalType": "string",
          "name": "vin",
          "type": "string"
        }
      ],
      "name": "viewMaintenaceReport",
      "outputs": [
        {
          "internalType": "string",
          "name": "vehicleCondition",
          "type": "string"
        },
        {
          "internalType": "string",
          "name": "currentOdometer",
          "type": "string"
        },
        {
          "internalType": "string",
          "name": "currentEngineHours",
          "type": "string"
        },
        {
          "internalType": "string",
          "name": "lastService",
          "type": "string"
        },
        {
          "internalType": "string",
          "name": "ServiceType",
          "type": "string"
        },
        {
          "internalType": "string",
          "name": "partsReplaced",
          "type": "string"
        },
        {
          "internalType": "string",
          "name": "cost",
          "type": "string"
        },
        {
          "internalType": "string",
          "name": "isUnderInsurance",
          "type": "string"
        },
        {
          "internalType": "string",
          "name": "Message",
          "type": "string"
        },
        {
          "internalType": "uint256",
          "name": "num",
          "type": "uint256"
        }
      ],
      "stateMutability": "nonpayable",
      "type": "function"
    },
    {
      "inputs": [
        {
          "internalType": "string",
          "name": "vin",
          "type": "string"
        },
        {
          "internalType": "uint256",
          "name": "n",
          "type": "uint256"
        }
      ],
      "name": "viewMaintenaceReportByIndex",
      "outputs": [
        {
          "internalType": "string",
          "name": "vehicleCondition",
          "type": "string"
        },
        {
          "internalType": "string",
          "name": "currentOdometer",
          "type": "string"
        },
        {
          "internalType": "string",
          "name": "currentEngineHours",
          "type": "string"
        },
        {
          "internalType": "string",
          "name": "lastService",
          "type": "string"
        },
        {
          "internalType": "string",
          "name": "ServiceType",
          "type": "string"
        },
        {
          "internalType": "string",
          "name": "partsReplaced",
          "type": "string"
        },
        {
          "internalType": "string",
          "name": "cost",
          "type": "string"
        },
        {
          "internalType": "string",
          "name": "isUnderInsurance",
          "type": "string"
        },
        {
          "internalType": "string",
          "name": "Message",
          "type": "string"
        }
      ],
      "stateMutability": "nonpayable",
      "type": "function"
    }
  ],
  "bytecode": "0x608060405273424f1cc8a9c3fe828e5159ab355546b114784488600b60006101000a81548173ffffffffffffffffffffffffffffffffffffffff021916908373ffffffffffffffffffffffffffffffffffffffff1602179055506008600c5534801561006a57600080fd5b5061547b8061007a6000396000f3fe608060405234801561001057600080fd5b506004361061012b5760003560e01c806376a24463116100ad578063bf20f94011610071578063bf20f94014610363578063d692833514610381578063d914ec40146103b9578063e1eb056a146103ed578063f5e42579146104095761012b565b806376a24463146102a65780637f4f739a146102df578063982feeea1461030f578063a2ae5ef51461032b578063b868ae42146103475761012b565b806324d10240116100f457806324d1024014610202578063357645521461021e57806335ce16f41461023a5780636cc8bda71461025657806370a2dcc81461028a5761012b565b8062ce8e3e14610130578063068d389a1461014e578063080266681461018357806308e3cd9d146101b45780630e5374e0146101d2575b600080fd5b610138610425565b6040516101459190614fce565b60405180910390f35b6101686004803603810190610163919061498c565b6104c5565b60405161017a96959493929190614f4a565b60405180910390f35b61019d60048036038101906101989190614734565b6108fd565b6040516101ab929190615012565b60405180910390f35b6101bc610d8b565b6040516101c99190614fce565b60405180910390f35b6101ec60048036038101906101e7919061498c565b610e2b565b6040516101f99190614fce565b60405180910390f35b61021c600480360381019061021791906149cd565b610eef565b005b61023860048036038101906102339190614a21565b6111b2565b005b610254600480360381019061024f919061475d565b6114ed565b005b610270600480360381019061026b9190614734565b611732565b604051610281959493929190615049565b60405180910390f35b6102a4600480360381019061029f919061485e565b611c98565b005b6102c060048036038101906102bb919061498c565b6121b1565b6040516102d69a9998979695949392919061518b565b60405180910390f35b6102f960048036038101906102f4919061498c565b612927565b6040516103069190614fce565b60405180910390f35b6103296004803603810190610324919061475d565b612a35565b005b610345600480360381019061034091906149cd565b612c7a565b005b610361600480360381019061035c9190614734565b612d5f565b005b61036b612f40565b6040516103789190614ff0565b60405180910390f35b61039b60048036038101906103969190614c6b565b61303b565b6040516103b0999897969594939291906150bf565b60405180910390f35b6103d360048036038101906103ce9190614734565b6136cd565b6040516103e4959493929190615049565b60405180910390f35b61040760048036038101906104029190614aa0565b613c34565b005b610423600480360381019061041e9190614734565b614020565b005b606061043033614201565b61043957600080fd5b60048054806020026020016040519081016040528092919081815260200182805480156104bb57602002820191906000526020600020905b8160009054906101000a900473ffffffffffffffffffffffffffffffffffffffff1673ffffffffffffffffffffffffffffffffffffffff1681526020019060010190808311610471575b5050505050905090565b600060608060608060606104d833614201565b6104e157600080fd5b60006008886040516104f39190614f1c565b908152602001604051809103902090506008886040516105139190614f1c565b908152602001604051809103902060000160009054906101000a900473ffffffffffffffffffffffffffffffffffffffff1696506008886040516105579190614f1c565b90815260200160405180910390206002018054600181600116156101000203166002900480601f0160208091040260200160405190810160405280929190818152602001828054600181600116156101000203166002900480156105fc5780601f106105d1576101008083540402835291602001916105fc565b820191906000526020600020905b8154815290600101906020018083116105df57829003601f168201915b505050505095506008886040516106139190614f1c565b90815260200160405180910390206003018054600181600116156101000203166002900480601f0160208091040260200160405190810160405280929190818152602001828054600181600116156101000203166002900480156106b85780601f1061068d576101008083540402835291602001916106b8565b820191906000526020600020905b81548152906001019060200180831161069b57829003601f168201915b505050505094506008886040516106cf9190614f1c565b90815260200160405180910390206004018054600181600116156101000203166002900480601f0160208091040260200160405190810160405280929190818152602001828054600181600116156101000203166002900480156107745780601f1061074957610100808354040283529160200191610774565b820191906000526020600020905b81548152906001019060200180831161075757829003601f168201915b5050505050935060088860405161078b9190614f1c565b90815260200160405180910390206005018054600181600116156101000203166002900480601f0160208091040260200160405190810160405280929190818152602001828054600181600116156101000203166002900480156108305780601f1061080557610100808354040283529160200191610830565b820191906000526020600020905b81548152906001019060200180831161081357829003601f168201915b505050505092506008886040516108479190614f1c565b90815260200160405180910390206006018054600181600116156101000203166002900480601f0160208091040260200160405190810160405280929190818152602001828054600181600116156101000203166002900480156108ec5780601f106108c1576101008083540402835291602001916108ec565b820191906000526020600020905b8154815290600101906020018083116108cf57829003601f168201915b505050505091505091939550919395565b60608060005b600080549050811015610d1457600080828154811061091e57fe5b90600052602060002090600602016040518060c00160405290816000820160009054906101000a900473ffffffffffffffffffffffffffffffffffffffff1673ffffffffffffffffffffffffffffffffffffffff1673ffffffffffffffffffffffffffffffffffffffff168152602001600182018054600181600116156101000203166002900480601f016020809104026020016040519081016040528092919081815260200182805460018160011615610100020316600290048015610a265780601f106109fb57610100808354040283529160200191610a26565b820191906000526020600020905b815481529060010190602001808311610a0957829003601f168201915b50505050508152602001600282018054600181600116156101000203166002900480601f016020809104026020016040519081016040528092919081815260200182805460018160011615610100020316600290048015610ac85780601f10610a9d57610100808354040283529160200191610ac8565b820191906000526020600020905b815481529060010190602001808311610aab57829003601f168201915b50505050508152602001600382018054600181600116156101000203166002900480601f016020809104026020016040519081016040528092919081815260200182805460018160011615610100020316600290048015610b6a5780601f10610b3f57610100808354040283529160200191610b6a565b820191906000526020600020905b815481529060010190602001808311610b4d57829003601f168201915b50505050508152602001600482018054600181600116156101000203166002900480601f016020809104026020016040519081016040528092919081815260200182805460018160011615610100020316600290048015610c0c5780601f10610be157610100808354040283529160200191610c0c565b820191906000526020600020905b815481529060010190602001808311610bef57829003601f168201915b50505050508152602001600582018054600181600116156101000203166002900480601f016020809104026020016040519081016040528092919081815260200182805460018160011615610100020316600290048015610cae5780601f10610c8357610100808354040283529160200191610cae565b820191906000526020600020905b815481529060010190602001808311610c9157829003601f168201915b50505050508152505090508473ffffffffffffffffffffffffffffffffffffffff16816000015173ffffffffffffffffffffffffffffffffffffffff161415610d06578060a001518160200151935093505050610d86565b508080600101915050610903565b6040518060400160405280600981526020017f4e6f7420466f756e6400000000000000000000000000000000000000000000008152506040518060400160405280600981526020017f4e6f7420466f756e64000000000000000000000000000000000000000000000081525092509250505b915091565b6060610d9633614201565b610d9f57600080fd5b6003805480602002602001604051908101604052809291908181526020018280548015610e2157602002820191906000526020600020905b8160009054906101000a900473ffffffffffffffffffffffffffffffffffffffff1673ffffffffffffffffffffffffffffffffffffffff1681526020019060010190808311610dd7575b5050505050905090565b6060610e3633614201565b610e3c57fe5b6000600a83604051610e4e9190614f1c565b9081526020016040518091039020905080600101805480602002602001604051908101604052809291908181526020018280548015610ee257602002820191906000526020600020905b8160009054906101000a900473ffffffffffffffffffffffffffffffffffffffff1673ffffffffffffffffffffffffffffffffffffffff1681526020019060010190808311610e98575b5050505050915050919050565b6000600983604051610f019190614f1c565b908152602001604051809103902090503373ffffffffffffffffffffffffffffffffffffffff168160010160009054906101000a900473ffffffffffffffffffffffffffffffffffffffff1673ffffffffffffffffffffffffffffffffffffffff1614610f6a57fe5b60008060005b8360020180549050811015611005578473ffffffffffffffffffffffffffffffffffffffff16846002018281548110610fa557fe5b9060005260206000200160009054906101000a900473ffffffffffffffffffffffffffffffffffffffff1673ffffffffffffffffffffffffffffffffffffffff161415610ff85780925060019150611005565b8080600101915050610f70565b50600115158115151461101457fe5b600083600201838154811061102557fe5b9060005260206000200160009054906101000a900473ffffffffffffffffffffffffffffffffffffffff1690506009866040516110629190614f1c565b908152602001604051809103902060010160009054906101000a900473ffffffffffffffffffffffffffffffffffffffff1673ffffffffffffffffffffffffffffffffffffffff168173ffffffffffffffffffffffffffffffffffffffff1614156110c957fe5b836002016001856002018054905003815481106110e257fe5b9060005260206000200160009054906101000a900473ffffffffffffffffffffffffffffffffffffffff1684600201848154811061111c57fe5b9060005260206000200160006101000a81548173ffffffffffffffffffffffffffffffffffffffff021916908373ffffffffffffffffffffffffffffffffffffffff1602179055508360020160018560020180549050038154811061117d57fe5b9060005260206000200160006101000a81549073ffffffffffffffffffffffffffffffffffffffff0219169055505050505050565b60006008846040516111c49190614f1c565b908152602001604051809103902090503373ffffffffffffffffffffffffffffffffffffffff168160000160009054906101000a900473ffffffffffffffffffffffffffffffffffffffff1673ffffffffffffffffffffffffffffffffffffffff161461122d57fe5b828160000160006101000a81548173ffffffffffffffffffffffffffffffffffffffff021916908373ffffffffffffffffffffffffffffffffffffffff160217905550818160050190805190602001906112889291906145f7565b506040518060400160405280600581526020017f66616c73650000000000000000000000000000000000000000000000000000008152508160060190805190602001906112d69291906145f7565b5060006009856040516112e99190614f1c565b908152602001604051809103902090503373ffffffffffffffffffffffffffffffffffffffff168160010160009054906101000a900473ffffffffffffffffffffffffffffffffffffffff1673ffffffffffffffffffffffffffffffffffffffff161461135257fe5b838160010160006101000a81548173ffffffffffffffffffffffffffffffffffffffff021916908373ffffffffffffffffffffffffffffffffffffffff16021790555083816002016000815481106113a657fe5b9060005260206000200160006101000a81548173ffffffffffffffffffffffffffffffffffffffff021916908373ffffffffffffffffffffffffffffffffffffffff1602179055506000600a866040516114009190614f1c565b9081526020016040518091039020905080600101859080600181540180825580915050600190039060005260206000200160009091909190916101000a81548173ffffffffffffffffffffffffffffffffffffffff021916908373ffffffffffffffffffffffffffffffffffffffff160217905550856040516114839190614f1c565b60405180910390208573ffffffffffffffffffffffffffffffffffffffff163373ffffffffffffffffffffffffffffffffffffffff167f55e10366a5f552746106978b694d7ef3bbddec06bd5f9b9d15ad46f475c653ef60405160405180910390a4505050505050565b6114f6866142a3565b801561152d57508573ffffffffffffffffffffffffffffffffffffffff163373ffffffffffffffffffffffffffffffffffffffff16145b61153657600080fd5b6000805b6001805490508110156115cf578773ffffffffffffffffffffffffffffffffffffffff166001828154811061156b57fe5b906000526020600020906006020160000160009054906101000a900473ffffffffffffffffffffffffffffffffffffffff1673ffffffffffffffffffffffffffffffffffffffff1614156115c257600191506115cf565b808060010191505061153a565b5060018114156115db57fe5b60006040518060c001604052808973ffffffffffffffffffffffffffffffffffffffff168152602001888152602001878152602001868152602001858152602001848152509050600181908060018154018082558091505060019003906000526020600020906006020160009091909190915060008201518160000160006101000a81548173ffffffffffffffffffffffffffffffffffffffff021916908373ffffffffffffffffffffffffffffffffffffffff16021790555060208201518160010190805190602001906116b19291906145f7565b5060408201518160020190805190602001906116ce9291906145f7565b5060608201518160030190805190602001906116eb9291906145f7565b5060808201518160040190805190602001906117089291906145f7565b5060a08201518160050190805190602001906117259291906145f7565b5050505050505050505050565b606080606080606061174333614201565b61174c57600080fd5b60005b600080549050811015611b7557600080828154811061176a57fe5b90600052602060002090600602016040518060c00160405290816000820160009054906101000a900473ffffffffffffffffffffffffffffffffffffffff1673ffffffffffffffffffffffffffffffffffffffff1673ffffffffffffffffffffffffffffffffffffffff168152602001600182018054600181600116156101000203166002900480601f0160208091040260200160405190810160405280929190818152602001828054600181600116156101000203166002900480156118725780601f1061184757610100808354040283529160200191611872565b820191906000526020600020905b81548152906001019060200180831161185557829003601f168201915b50505050508152602001600282018054600181600116156101000203166002900480601f0160208091040260200160405190810160405280929190818152602001828054600181600116156101000203166002900480156119145780601f106118e957610100808354040283529160200191611914565b820191906000526020600020905b8154815290600101906020018083116118f757829003601f168201915b50505050508152602001600382018054600181600116156101000203166002900480601f0160208091040260200160405190810160405280929190818152602001828054600181600116156101000203166002900480156119b65780601f1061198b576101008083540402835291602001916119b6565b820191906000526020600020905b81548152906001019060200180831161199957829003601f168201915b50505050508152602001600482018054600181600116156101000203166002900480601f016020809104026020016040519081016040528092919081815260200182805460018160011615610100020316600290048015611a585780601f10611a2d57610100808354040283529160200191611a58565b820191906000526020600020905b815481529060010190602001808311611a3b57829003601f168201915b50505050508152602001600582018054600181600116156101000203166002900480601f016020809104026020016040519081016040528092919081815260200182805460018160011615610100020316600290048015611afa5780601f10611acf57610100808354040283529160200191611afa565b820191906000526020600020905b815481529060010190602001808311611add57829003601f168201915b50505050508152505090508773ffffffffffffffffffffffffffffffffffffffff16816000015173ffffffffffffffffffffffffffffffffffffffff161415611b675780602001518160400151826060015183608001518460a00151965096509650965096505050611c8f565b50808060010191505061174f565b6040518060400160405280600981526020017f4e6f7420466f756e6400000000000000000000000000000000000000000000008152506040518060400160405280600981526020017f4e6f7420466f756e6400000000000000000000000000000000000000000000008152506040518060400160405280600981526020017f4e6f7420466f756e6400000000000000000000000000000000000000000000008152506040518060400160405280600981526020017f4e6f7420466f756e6400000000000000000000000000000000000000000000008152506040518060400160405280600981526020017f4e6f7420466f756e64000000000000000000000000000000000000000000000081525095509550955095509550505b91939590929450565b6000805b600680549050811015611d295787604051602001611cba9190614f1c565b6040516020818303038152906040528051906020012060068281548110611cdd57fe5b90600052602060002001604051602001611cf79190614f33565b604051602081830303815290604052805190602001201415611d1c5760019150611d29565b8080600101915050611c9c565b5060008114611d3457fe5b6000805b600080549050811015611dcd578973ffffffffffffffffffffffffffffffffffffffff1660008281548110611d6957fe5b906000526020600020906006020160000160009054906101000a900473ffffffffffffffffffffffffffffffffffffffff1673ffffffffffffffffffffffffffffffffffffffff161415611dc05760019150611dcd565b8080600101915050611d38565b5060018114611dd857fe5b600073ffffffffffffffffffffffffffffffffffffffff16600889604051611e009190614f1c565b908152602001604051809103902060000160009054906101000a900473ffffffffffffffffffffffffffffffffffffffff1673ffffffffffffffffffffffffffffffffffffffff1614611e4f57fe5b87600889604051611e609190614f1c565b90815260200160405180910390206001019080519060200190611e849291906145f7565b5033600889604051611e969190614f1c565b908152602001604051809103902060000160006101000a81548173ffffffffffffffffffffffffffffffffffffffff021916908373ffffffffffffffffffffffffffffffffffffffff16021790555086600889604051611ef69190614f1c565b90815260200160405180910390206002019080519060200190611f1a9291906145f7565b5085600889604051611f2c9190614f1c565b90815260200160405180910390206003019080519060200190611f509291906145f7565b5084600889604051611f629190614f1c565b90815260200160405180910390206004019080519060200190611f869291906145f7565b5083600889604051611f989190614f1c565b90815260200160405180910390206005019080519060200190611fbc9291906145f7565b5082600889604051611fce9190614f1c565b90815260200160405180910390206006019080519060200190611ff29291906145f7565b50876007896040516120049190614f1c565b908152602001604051809103902060000190805190602001906120289291906145f7565b50600160078960405161203b9190614f1c565b9081526020016040518091039020600a018190555061205988614345565b6006889080600181540180825580915050600190039060005260206000200160009091909190915090805190602001906120949291906145f7565b5087600a896040516120a69190614f1c565b908152602001604051809103902060000190805190602001906120ca9291906145f7565b50600a886040516120db9190614f1c565b9081526020016040518091039020600101899080600181540180825580915050600190039060005260206000200160009091909190916101000a81548173ffffffffffffffffffffffffffffffffffffffff021916908373ffffffffffffffffffffffffffffffffffffffff1602179055508760405161215b9190614f1c565b60405180910390203373ffffffffffffffffffffffffffffffffffffffff167f7576f50ccb78780070e33f52db6f472443623d0b8531b84deecbdd9df393367d60405160405180910390a3505050505050505050565b606080606080606080606080606060006001151561228760088d6040516121d89190614f1c565b90815260200160405180910390206001018054600181600116156101000203166002900480601f01602080910402602001604051908101604052809291908181526020018280546001816001161561010002031660029004801561227d5780601f106122525761010080835404028352916020019161227d565b820191906000526020600020905b81548152906001019060200180831161226057829003601f168201915b5050505050614460565b15151461229057fe5b600060078c6040516122a29190614f1c565b908152602001604051809103902090506000600182600201805490500390508160010181815481106122d057fe5b906000526020600020018054600181600116156101000203166002900480601f01602080910402602001604051908101604052809291908181526020018280546001816001161561010002031660029004801561236e5780601f106123435761010080835404028352916020019161236e565b820191906000526020600020905b81548152906001019060200180831161235157829003601f168201915b50505050509b5081600201818154811061238457fe5b906000526020600020018054600181600116156101000203166002900480601f0160208091040260200160405190810160405280929190818152602001828054600181600116156101000203166002900480156124225780601f106123f757610100808354040283529160200191612422565b820191906000526020600020905b81548152906001019060200180831161240557829003601f168201915b50505050509a5081600301818154811061243857fe5b906000526020600020018054600181600116156101000203166002900480601f0160208091040260200160405190810160405280929190818152602001828054600181600116156101000203166002900480156124d65780601f106124ab576101008083540402835291602001916124d6565b820191906000526020600020905b8154815290600101906020018083116124b957829003601f168201915b505050505099508160040181815481106124ec57fe5b906000526020600020018054600181600116156101000203166002900480601f01602080910402602001604051908101604052809291908181526020018280546001816001161561010002031660029004801561258a5780601f1061255f5761010080835404028352916020019161258a565b820191906000526020600020905b81548152906001019060200180831161256d57829003601f168201915b505050505098508160050181815481106125a057fe5b906000526020600020018054600181600116156101000203166002900480601f01602080910402602001604051908101604052809291908181526020018280546001816001161561010002031660029004801561263e5780601f106126135761010080835404028352916020019161263e565b820191906000526020600020905b81548152906001019060200180831161262157829003601f168201915b5050505050975081600601818154811061265457fe5b906000526020600020018054600181600116156101000203166002900480601f0160208091040260200160405190810160405280929190818152602001828054600181600116156101000203166002900480156126f25780601f106126c7576101008083540402835291602001916126f2565b820191906000526020600020905b8154815290600101906020018083116126d557829003601f168201915b5050505050965081600701818154811061270857fe5b906000526020600020018054600181600116156101000203166002900480601f0160208091040260200160405190810160405280929190818152602001828054600181600116156101000203166002900480156127a65780601f1061277b576101008083540402835291602001916127a6565b820191906000526020600020905b81548152906001019060200180831161278957829003601f168201915b505050505095508160080181815481106127bc57fe5b906000526020600020018054600181600116156101000203166002900480601f01602080910402602001604051908101604052809291908181526020018280546001816001161561010002031660029004801561285a5780601f1061282f5761010080835404028352916020019161285a565b820191906000526020600020905b81548152906001019060200180831161283d57829003601f168201915b5050505050945081600901818154811061287057fe5b906000526020600020018054600181600116156101000203166002900480601f01602080910402602001604051908101604052809291908181526020018280546001816001161561010002031660029004801561290e5780601f106128e35761010080835404028352916020019161290e565b820191906000526020600020905b8154815290600101906020018083116128f157829003601f168201915b5050505050935080925050509193959799509193959799565b6060600060098360405161293b9190614f1c565b908152602001604051809103902090503373ffffffffffffffffffffffffffffffffffffffff168160010160009054906101000a900473ffffffffffffffffffffffffffffffffffffffff1673ffffffffffffffffffffffffffffffffffffffff16146129a457fe5b80600201805480602002602001604051908101604052809291908181526020018280548015612a2857602002820191906000526020600020905b8160009054906101000a900473ffffffffffffffffffffffffffffffffffffffff1673ffffffffffffffffffffffffffffffffffffffff16815260200190600101908083116129de575b5050505050915050919050565b612a3e86614555565b8015612a7557508573ffffffffffffffffffffffffffffffffffffffff163373ffffffffffffffffffffffffffffffffffffffff16145b612a7e57600080fd5b6000805b600080549050811015612b17578773ffffffffffffffffffffffffffffffffffffffff1660008281548110612ab357fe5b906000526020600020906006020160000160009054906101000a900473ffffffffffffffffffffffffffffffffffffffff1673ffffffffffffffffffffffffffffffffffffffff161415612b0a5760019150612b17565b8080600101915050612a82565b506001811415612b2357fe5b60006040518060c001604052808973ffffffffffffffffffffffffffffffffffffffff168152602001888152602001878152602001868152602001858152602001848152509050600081908060018154018082558091505060019003906000526020600020906006020160009091909190915060008201518160000160006101000a81548173ffffffffffffffffffffffffffffffffffffffff021916908373ffffffffffffffffffffffffffffffffffffffff1602179055506020820151816001019080519060200190612bf99291906145f7565b506040820151816002019080519060200190612c169291906145f7565b506060820151816003019080519060200190612c339291906145f7565b506080820151816004019080519060200190612c509291906145f7565b5060a0820151816005019080519060200190612c6d9291906145f7565b5050505050505050505050565b6000600983604051612c8c9190614f1c565b908152602001604051809103902090503373ffffffffffffffffffffffffffffffffffffffff168160010160009054906101000a900473ffffffffffffffffffffffffffffffffffffffff1673ffffffffffffffffffffffffffffffffffffffff1614612cf557fe5b80600201829080600181540180825580915050600190039060005260206000200160009091909190916101000a81548173ffffffffffffffffffffffffffffffffffffffff021916908373ffffffffffffffffffffffffffffffffffffffff160217905550505050565b600b60009054906101000a900473ffffffffffffffffffffffffffffffffffffffff1673ffffffffffffffffffffffffffffffffffffffff163373ffffffffffffffffffffffffffffffffffffffff1614612db957600080fd5b6000805b600480549050811015612e4b578273ffffffffffffffffffffffffffffffffffffffff1660048281548110612dee57fe5b9060005260206000200160009054906101000a900473ffffffffffffffffffffffffffffffffffffffff1673ffffffffffffffffffffffffffffffffffffffff161415612e3e5760019150612e4b565b8080600101915050612dbd565b506000151581151514612e5d57600080fd5b60001515612e6a836142a3565b151514612e7657600080fd5b6004829080600181540180825580915050600190039060005260206000200160009091909190916101000a81548173ffffffffffffffffffffffffffffffffffffffff021916908373ffffffffffffffffffffffffffffffffffffffff1602179055506005829080600181540180825580915050600190039060005260206000200160009091909190916101000a81548173ffffffffffffffffffffffffffffffffffffffff021916908373ffffffffffffffffffffffffffffffffffffffff1602179055505050565b6060612f4b33614201565b612f5457600080fd5b6006805480602002602001604051908101604052809291908181526020016000905b82821015613032578382906000526020600020018054600181600116156101000203166002900480601f01602080910402602001604051908101604052809291908181526020018280546001816001161561010002031660029004801561301e5780601f10612ff35761010080835404028352916020019161301e565b820191906000526020600020905b81548152906001019060200180831161300157829003601f168201915b505050505081526020019060010190612f76565b50505050905090565b6060806060806060806060806060600060078c60405161305b9190614f1c565b90815260200160405180910390209050806001018b8154811061307a57fe5b906000526020600020018054600181600116156101000203166002900480601f0160208091040260200160405190810160405280929190818152602001828054600181600116156101000203166002900480156131185780601f106130ed57610100808354040283529160200191613118565b820191906000526020600020905b8154815290600101906020018083116130fb57829003601f168201915b50505050509950806002018b8154811061312e57fe5b906000526020600020018054600181600116156101000203166002900480601f0160208091040260200160405190810160405280929190818152602001828054600181600116156101000203166002900480156131cc5780601f106131a1576101008083540402835291602001916131cc565b820191906000526020600020905b8154815290600101906020018083116131af57829003601f168201915b50505050509850806003018b815481106131e257fe5b906000526020600020018054600181600116156101000203166002900480601f0160208091040260200160405190810160405280929190818152602001828054600181600116156101000203166002900480156132805780601f1061325557610100808354040283529160200191613280565b820191906000526020600020905b81548152906001019060200180831161326357829003601f168201915b50505050509750806004018b8154811061329657fe5b906000526020600020018054600181600116156101000203166002900480601f0160208091040260200160405190810160405280929190818152602001828054600181600116156101000203166002900480156133345780601f1061330957610100808354040283529160200191613334565b820191906000526020600020905b81548152906001019060200180831161331757829003601f168201915b50505050509650806005018b8154811061334a57fe5b906000526020600020018054600181600116156101000203166002900480601f0160208091040260200160405190810160405280929190818152602001828054600181600116156101000203166002900480156133e85780601f106133bd576101008083540402835291602001916133e8565b820191906000526020600020905b8154815290600101906020018083116133cb57829003601f168201915b50505050509550806006018b815481106133fe57fe5b906000526020600020018054600181600116156101000203166002900480601f01602080910402602001604051908101604052809291908181526020018280546001816001161561010002031660029004801561349c5780601f106134715761010080835404028352916020019161349c565b820191906000526020600020905b81548152906001019060200180831161347f57829003601f168201915b50505050509450806007018b815481106134b257fe5b906000526020600020018054600181600116156101000203166002900480601f0160208091040260200160405190810160405280929190818152602001828054600181600116156101000203166002900480156135505780601f1061352557610100808354040283529160200191613550565b820191906000526020600020905b81548152906001019060200180831161353357829003601f168201915b50505050509350806008018b8154811061356657fe5b906000526020600020018054600181600116156101000203166002900480601f0160208091040260200160405190810160405280929190818152602001828054600181600116156101000203166002900480156136045780601f106135d957610100808354040283529160200191613604565b820191906000526020600020905b8154815290600101906020018083116135e757829003601f168201915b50505050509250806009018b8154811061361a57fe5b906000526020600020018054600181600116156101000203166002900480601f0160208091040260200160405190810160405280929190818152602001828054600181600116156101000203166002900480156136b85780601f1061368d576101008083540402835291602001916136b8565b820191906000526020600020905b81548152906001019060200180831161369b57829003601f168201915b50505050509150509295985092959850929598565b60608060608060606136de33614201565b6136e757600080fd5b60005b600180549050811015613b115760006001828154811061370657fe5b90600052602060002090600602016040518060c00160405290816000820160009054906101000a900473ffffffffffffffffffffffffffffffffffffffff1673ffffffffffffffffffffffffffffffffffffffff1673ffffffffffffffffffffffffffffffffffffffff168152602001600182018054600181600116156101000203166002900480601f01602080910402602001604051908101604052809291908181526020018280546001816001161561010002031660029004801561380e5780601f106137e35761010080835404028352916020019161380e565b820191906000526020600020905b8154815290600101906020018083116137f157829003601f168201915b50505050508152602001600282018054600181600116156101000203166002900480601f0160208091040260200160405190810160405280929190818152602001828054600181600116156101000203166002900480156138b05780601f10613885576101008083540402835291602001916138b0565b820191906000526020600020905b81548152906001019060200180831161389357829003601f168201915b50505050508152602001600382018054600181600116156101000203166002900480601f0160208091040260200160405190810160405280929190818152602001828054600181600116156101000203166002900480156139525780601f1061392757610100808354040283529160200191613952565b820191906000526020600020905b81548152906001019060200180831161393557829003601f168201915b50505050508152602001600482018054600181600116156101000203166002900480601f0160208091040260200160405190810160405280929190818152602001828054600181600116156101000203166002900480156139f45780601f106139c9576101008083540402835291602001916139f4565b820191906000526020600020905b8154815290600101906020018083116139d757829003601f168201915b50505050508152602001600582018054600181600116156101000203166002900480601f016020809104026020016040519081016040528092919081815260200182805460018160011615610100020316600290048015613a965780601f10613a6b57610100808354040283529160200191613a96565b820191906000526020600020905b815481529060010190602001808311613a7957829003601f168201915b50505050508152505090508773ffffffffffffffffffffffffffffffffffffffff16816000015173ffffffffffffffffffffffffffffffffffffffff161415613b035780602001518160400151826060015183608001518460a00151965096509650965096505050613c2b565b5080806001019150506136ea565b6040518060400160405280600981526020017f4e6f7420466f756e6400000000000000000000000000000000000000000000008152506040518060400160405280600981526020017f4e6f7420466f756e6400000000000000000000000000000000000000000000008152506040518060400160405280600981526020017f4e6f7420466f756e6400000000000000000000000000000000000000000000008152506040518060400160405280600981526020017f4e6f7420466f756e6400000000000000000000000000000000000000000000008152506040518060400160405280600981526020017f4e6f7420466f756e64000000000000000000000000000000000000000000000081525095509550955095509550505b91939590929450565b6000805b600180549050811015613ccd573373ffffffffffffffffffffffffffffffffffffffff1660018281548110613c6957fe5b906000526020600020906006020160000160009054906101000a900473ffffffffffffffffffffffffffffffffffffffff1673ffffffffffffffffffffffffffffffffffffffff161415613cc05760019150613ccd565b8080600101915050613c38565b5060018114613cdb57600080fd5b60011515613ce88c614460565b15151415614013576000805b600180549050811015613d89573373ffffffffffffffffffffffffffffffffffffffff1660018281548110613d2557fe5b906000526020600020906006020160000160009054906101000a900473ffffffffffffffffffffffffffffffffffffffff1673ffffffffffffffffffffffffffffffffffffffff161415613d7c5760019150613d89565b8080600101915050613cf4565b5060018114613d9757600080fd5b600060078d604051613da99190614f1c565b908152602001604051809103902090508c816000019080519060200190613dd19291906145f7565b50806001018c908060018154018082558091505060019003906000526020600020016000909190919091509080519060200190613e0f9291906145f7565b50806002018b908060018154018082558091505060019003906000526020600020016000909190919091509080519060200190613e4d9291906145f7565b50806003018a908060018154018082558091505060019003906000526020600020016000909190919091509080519060200190613e8b9291906145f7565b508060040189908060018154018082558091505060019003906000526020600020016000909190919091509080519060200190613ec99291906145f7565b508060050188908060018154018082558091505060019003906000526020600020016000909190919091509080519060200190613f079291906145f7565b508060060187908060018154018082558091505060019003906000526020600020016000909190919091509080519060200190613f459291906145f7565b508060070186908060018154018082558091505060019003906000526020600020016000909190919091509080519060200190613f839291906145f7565b508060080185908060018154018082558091505060019003906000526020600020016000909190919091509080519060200190613fc19291906145f7565b508060090184908060018154018082558091505060019003906000526020600020016000909190919091509080519060200190613fff9291906145f7565b50600181600a01540181600a018190555050505b5050505050505050505050565b600b60009054906101000a900473ffffffffffffffffffffffffffffffffffffffff1673ffffffffffffffffffffffffffffffffffffffff163373ffffffffffffffffffffffffffffffffffffffff161461407a57600080fd5b6000805b60038054905081101561410c578273ffffffffffffffffffffffffffffffffffffffff16600382815481106140af57fe5b9060005260206000200160009054906101000a900473ffffffffffffffffffffffffffffffffffffffff1673ffffffffffffffffffffffffffffffffffffffff1614156140ff576001915061410c565b808060010191505061407e565b50600015158115151461411e57600080fd5b6000151561412b83614555565b15151461413757600080fd5b6003829080600181540180825580915050600190039060005260206000200160009091909190916101000a81548173ffffffffffffffffffffffffffffffffffffffff021916908373ffffffffffffffffffffffffffffffffffffffff1602179055506005829080600181540180825580915050600190039060005260206000200160009091909190916101000a81548173ffffffffffffffffffffffffffffffffffffffff021916908373ffffffffffffffffffffffffffffffffffffffff1602179055505050565b6000806000905060005b600580549050811015614299578373ffffffffffffffffffffffffffffffffffffffff166005828154811061423c57fe5b9060005260206000200160009054906101000a900473ffffffffffffffffffffffffffffffffffffffff1673ffffffffffffffffffffffffffffffffffffffff16141561428c5760019150614299565b808060010191505061420b565b5080915050919050565b6000806000905060005b60038054905081101561433b578373ffffffffffffffffffffffffffffffffffffffff16600382815481106142de57fe5b9060005260206000200160009054906101000a900473ffffffffffffffffffffffffffffffffffffffff1673ffffffffffffffffffffffffffffffffffffffff16141561432e576001915061433b565b80806001019150506142ad565b5080915050919050565b806009826040516143569190614f1c565b9081526020016040518091039020600001908051906020019061437a9291906145f7565b503360098260405161438c9190614f1c565b908152602001604051809103902060010160006101000a81548173ffffffffffffffffffffffffffffffffffffffff021916908373ffffffffffffffffffffffffffffffffffffffff1602179055506009816040516143eb9190614f1c565b9081526020016040518091039020600201339080600181540180825580915050600190039060005260206000200160009091909190916101000a81548173ffffffffffffffffffffffffffffffffffffffff021916908373ffffffffffffffffffffffffffffffffffffffff16021790555050565b6000806000905060005b60098460405161447a9190614f1c565b908152602001604051809103902060020180549050811015614536573373ffffffffffffffffffffffffffffffffffffffff166009856040516144bd9190614f1c565b908152602001604051809103902060020182815481106144d957fe5b9060005260206000200160009054906101000a900473ffffffffffffffffffffffffffffffffffffffff1673ffffffffffffffffffffffffffffffffffffffff1614156145295760019150614536565b808060010191505061446a565b50600181141561454a576001915050614550565b60009150505b919050565b6000806000905060005b6004805490508110156145ed578373ffffffffffffffffffffffffffffffffffffffff166004828154811061459057fe5b9060005260206000200160009054906101000a900473ffffffffffffffffffffffffffffffffffffffff1673ffffffffffffffffffffffffffffffffffffffff1614156145e057600191506145ed565b808060010191505061455f565b5080915050919050565b828054600181600116156101000203166002900490600052602060002090601f01602090048101928261462d5760008555614674565b82601f1061464657805160ff1916838001178555614674565b82800160010185558215614674579182015b82811115614673578251825591602001919060010190614658565b5b5090506146819190614685565b5090565b5b8082111561469e576000816000905550600101614686565b5090565b60006146b56146b084615297565b615266565b9050828152602081018484840111156146cd57600080fd5b6146d88482856153c2565b509392505050565b6000813590506146ef81615417565b92915050565b600082601f83011261470657600080fd5b81356147168482602086016146a2565b91505092915050565b60008135905061472e8161542e565b92915050565b60006020828403121561474657600080fd5b6000614754848285016146e0565b91505092915050565b60008060008060008060c0878903121561477657600080fd5b600061478489828a016146e0565b965050602087013567ffffffffffffffff8111156147a157600080fd5b6147ad89828a016146f5565b955050604087013567ffffffffffffffff8111156147ca57600080fd5b6147d689828a016146f5565b945050606087013567ffffffffffffffff8111156147f357600080fd5b6147ff89828a016146f5565b935050608087013567ffffffffffffffff81111561481c57600080fd5b61482889828a016146f5565b92505060a087013567ffffffffffffffff81111561484557600080fd5b61485189828a016146f5565b9150509295509295509295565b600080600080600080600060e0888a03121561487957600080fd5b60006148878a828b016146e0565b975050602088013567ffffffffffffffff8111156148a457600080fd5b6148b08a828b016146f5565b965050604088013567ffffffffffffffff8111156148cd57600080fd5b6148d98a828b016146f5565b955050606088013567ffffffffffffffff8111156148f657600080fd5b6149028a828b016146f5565b945050608088013567ffffffffffffffff81111561491f57600080fd5b61492b8a828b016146f5565b93505060a088013567ffffffffffffffff81111561494857600080fd5b6149548a828b016146f5565b92505060c088013567ffffffffffffffff81111561497157600080fd5b61497d8a828b016146f5565b91505092959891949750929550565b60006020828403121561499e57600080fd5b600082013567ffffffffffffffff8111156149b857600080fd5b6149c4848285016146f5565b91505092915050565b600080604083850312156149e057600080fd5b600083013567ffffffffffffffff8111156149fa57600080fd5b614a06858286016146f5565b9250506020614a17858286016146e0565b9150509250929050565b600080600060608486031215614a3657600080fd5b600084013567ffffffffffffffff811115614a5057600080fd5b614a5c868287016146f5565b9350506020614a6d868287016146e0565b925050604084013567ffffffffffffffff811115614a8a57600080fd5b614a96868287016146f5565b9150509250925092565b6000806000806000806000806000806101408b8d031215614ac057600080fd5b60008b013567ffffffffffffffff811115614ada57600080fd5b614ae68d828e016146f5565b9a505060208b013567ffffffffffffffff811115614b0357600080fd5b614b0f8d828e016146f5565b99505060408b013567ffffffffffffffff811115614b2c57600080fd5b614b388d828e016146f5565b98505060608b013567ffffffffffffffff811115614b5557600080fd5b614b618d828e016146f5565b97505060808b013567ffffffffffffffff811115614b7e57600080fd5b614b8a8d828e016146f5565b96505060a08b013567ffffffffffffffff811115614ba757600080fd5b614bb38d828e016146f5565b95505060c08b013567ffffffffffffffff811115614bd057600080fd5b614bdc8d828e016146f5565b94505060e08b013567ffffffffffffffff811115614bf957600080fd5b614c058d828e016146f5565b9350506101008b013567ffffffffffffffff811115614c2357600080fd5b614c2f8d828e016146f5565b9250506101208b013567ffffffffffffffff811115614c4d57600080fd5b614c598d828e016146f5565b9150509295989b9194979a5092959850565b60008060408385031215614c7e57600080fd5b600083013567ffffffffffffffff811115614c9857600080fd5b614ca4858286016146f5565b9250506020614cb58582860161471f565b9150509250929050565b6000614ccb8383614ceb565b60208301905092915050565b6000614ce38383614ddc565b905092915050565b614cf481615386565b82525050565b614d0381615386565b82525050565b6000614d14826152fc565b614d1e8185615337565b9350614d29836152c7565b8060005b83811015614d5a578151614d418882614cbf565b9750614d4c8361531d565b925050600181019050614d2d565b5085935050505092915050565b6000614d7282615307565b614d7c8185615348565b935083602082028501614d8e856152d7565b8060005b85811015614dca5784840389528151614dab8582614cd7565b9450614db68361532a565b925060208a01995050600181019050614d92565b50829750879550505050505092915050565b6000614de782615312565b614df18185615359565b9350614e018185602086016153d1565b614e0a81615406565b840191505092915050565b6000614e2082615312565b614e2a818561536a565b9350614e3a8185602086016153d1565b614e4381615406565b840191505092915050565b6000614e5982615312565b614e63818561537b565b9350614e738185602086016153d1565b80840191505092915050565b600081546001811660008114614e9c5760018114614ec157614f05565b607f6002830416614ead818761537b565b955060ff1983168652808601935050614f05565b60028204614ecf818761537b565b9550614eda856152e7565b60005b82811015614efc57815481890152600182019150602081019050614edd565b82880195505050505b505092915050565b614f16816153b8565b82525050565b6000614f288284614e4e565b915081905092915050565b6000614f3f8284614e7f565b915081905092915050565b600060c082019050614f5f6000830189614cfa565b8181036020830152614f718188614e15565b90508181036040830152614f858187614e15565b90508181036060830152614f998186614e15565b90508181036080830152614fad8185614e15565b905081810360a0830152614fc18184614e15565b9050979650505050505050565b60006020820190508181036000830152614fe88184614d09565b905092915050565b6000602082019050818103600083015261500a8184614d67565b905092915050565b6000604082019050818103600083015261502c8185614e15565b905081810360208301526150408184614e15565b90509392505050565b600060a08201905081810360008301526150638188614e15565b905081810360208301526150778187614e15565b9050818103604083015261508b8186614e15565b9050818103606083015261509f8185614e15565b905081810360808301526150b38184614e15565b90509695505050505050565b60006101208201905081810360008301526150da818c614e15565b905081810360208301526150ee818b614e15565b90508181036040830152615102818a614e15565b905081810360608301526151168189614e15565b9050818103608083015261512a8188614e15565b905081810360a083015261513e8187614e15565b905081810360c08301526151528186614e15565b905081810360e08301526151668185614e15565b905081810361010083015261517b8184614e15565b90509a9950505050505050505050565b60006101408201905081810360008301526151a6818d614e15565b905081810360208301526151ba818c614e15565b905081810360408301526151ce818b614e15565b905081810360608301526151e2818a614e15565b905081810360808301526151f68189614e15565b905081810360a083015261520a8188614e15565b905081810360c083015261521e8187614e15565b905081810360e08301526152328186614e15565b90508181036101008301526152478185614e15565b9050615257610120830184614f0d565b9b9a5050505050505050505050565b6000604051905081810181811067ffffffffffffffff8211171561528d5761528c615404565b5b8060405250919050565b600067ffffffffffffffff8211156152b2576152b1615404565b5b601f19601f8301169050602081019050919050565b6000819050602082019050919050565b6000819050602082019050919050565b60008190508160005260206000209050919050565b600081519050919050565b600081519050919050565b600081519050919050565b6000602082019050919050565b6000602082019050919050565b600082825260208201905092915050565b600082825260208201905092915050565b600082825260208201905092915050565b600082825260208201905092915050565b600081905092915050565b600061539182615398565b9050919050565b600073ffffffffffffffffffffffffffffffffffffffff82169050919050565b6000819050919050565b82818337600083830152505050565b60005b838110156153ef5780820151818401526020810190506153d4565b838111156153fe576000848401525b50505050565bfe5b6000601f19601f8301169050919050565b61542081615386565b811461542b57600080fd5b50565b615437816153b8565b811461544257600080fd5b5056fea264697066735822122099ebd38bf97d6bfdddd844d8b11edc8676d2077df104de82b7e92914390bda0464736f6c63430007060033",
  "immutableReferences": {},
  "source": "pragma experimental ABIEncoderV2;\r\npragma solidity >=0.4.22 <0.8.0;\r\n\r\n// Creating a Smart Contract\r\ncontract Structregistry {\r\n\r\n  event Creation(\r\n        address indexed from,\r\n        string indexed vin\r\n    );\r\n\r\n     \r\n    event Transfer(\r\n        address indexed from,\r\n        address indexed to,\r\n        string indexed vin\r\n    );\r\n\r\n\r\n  struct users {\r\n\r\n    address Account;\r\n    string name;\r\n    string gender;\r\n    string Address;\r\n    string phone;\r\n    string password;\r\n  }\r\n\r\n  struct mechanic {\r\n\r\n    address Account;\r\n    string name;\r\n    string gender;\r\n    string Address;\r\n    string phone;\r\n    string garage;\r\n  }\r\n\r\n  struct car {\r\n\r\n  address owner;\r\n  string vin;\r\n  string brand_name;\r\n  string model_name;\r\n  string purchase_date;\r\n  string owner_name;\r\n  string isFirstHandOwner;\r\n  }\r\n\r\n  struct Maintenance {\r\n        string vin;\r\n        string[] vehicleCondition;\r\n        string[] currentOdometer;\r\n        string[] currentEngineHours;\r\n        string[] lastService;\r\n        string[] ServiceType;\r\n        string[]  partsReplaced;\r\n        string[] cost;\r\n        string[]  isUnderInsurance;\r\n        string[] Message;\r\n\r\n        uint256 count ;\r\n        \r\n    }\r\n\r\n    struct Auther {  \r\n           \r\n            string id; //id is same as vin of a car\r\n            address owner; \r\n            address[] auth_address; //array will contain all account address addedd by a particular car owner\r\n    }\r\n\r\n     struct OwnerList {  \r\n           \r\n            string vin; //id is same as vin of a car\r\n           // address owner; \r\n             address[] carOwner_address; //array will contain all account address addedd by a particular car owner\r\n    }\r\n\r\n  users[] users_address;\r\n  mechanic[] mech_address;\r\n  car[] vehicle;\r\n  address[] account_RegisterdMech;\r\n  address[] account_RegisterdUser;\r\n   address[] account_Registerd;\r\n  string[] vin_array;\r\n \r\n\r\n  mapping (string => Maintenance) maintenance;\r\n  mapping (string => car) cars;\r\n  mapping(string =>Auther) Auth_address; // id is mapped to Auther struct (key -> value pair)\r\n  mapping(string =>OwnerList) ownerList;\r\n\r\naddress contract_owner =0x424f1CC8A9c3fe828e5159AB355546B114784488; //address of owner\r\n \r\n\r\nfunction add_accountMech(address account) public{\r\n  require(msg.sender == contract_owner);\r\n\r\n  bool flag = false;\r\n  for(uint256 i=0;i<account_RegisterdMech.length;i++)\r\n    {\r\n      if(account_RegisterdMech[i] == account){ \r\n      flag = true;\r\n      break;\r\n                                             }\r\n    }\r\n  require(flag==false);\r\n  require(onlyRegisteredUser(account) == false);\r\n  account_RegisterdMech.push(account);\r\n  account_Registerd.push(account);\r\n\r\n}\r\n\r\nfunction add_accountUser(address account) public{\r\n  require(msg.sender ==contract_owner);\r\n\r\n  bool flag = false;\r\n  for(uint256 i=0;i<account_RegisterdUser.length;i++)\r\n    {\r\n      if(account_RegisterdUser[i] == account){ \r\n      flag = true;\r\n      break;\r\n                                             }\r\n    }\r\n  require(flag==false);\r\n   require(onlyRegisteredMech(account) == false);\r\n  account_RegisterdUser.push(account);\r\n  account_Registerd.push(account);\r\n\r\n}\r\n\r\nfunction onlyRegisteredMech(address account) internal returns (bool)  {\r\n \r\nbool flag = false;\r\n  for(uint256 i=0;i<account_RegisterdMech.length;i++)\r\n    {\r\n      if(account_RegisterdMech[i] == account){ \r\n      flag = true;\r\n      break;\r\n                                             }\r\n    }\r\n  return flag;\r\n}\r\n\r\nfunction onlyRegisteredUser(address account) internal returns (bool)  {\r\n \r\nbool flag = false;\r\n  for(uint256 i=0;i<account_RegisterdUser.length;i++)\r\n    {\r\n      if(account_RegisterdUser[i] == account){ \r\n      flag = true;\r\n      break;\r\n                                             }\r\n    }\r\n  return flag;\r\n}\r\n\r\nfunction onlyRegistered(address account) internal returns (bool)  {\r\n \r\nbool flag = false;\r\n  for(uint256 i=0;i<account_Registerd.length;i++)\r\n    {\r\n      if(account_Registerd[i] == account){ \r\n      flag = true;\r\n      break;\r\n                                             }\r\n    }\r\n  return flag;\r\n}\r\n\r\n\r\n\r\n\r\nfunction add_user(address Account, string memory name, string memory gender, string memory Address,\r\nstring memory phone, string memory password) public \r\n{\r\n  // assert(msg.sender == ress);\r\n  require(onlyRegisteredUser(Account) && msg.sender==Account);\r\n  uint256 flag = 0;\r\n  for(uint256 i=0;i<users_address.length;i++)\r\n    {\r\n      if(users_address[i].Account == Account){ \r\n      flag = 1;\r\n      break;\r\n                                             }\r\n    }\r\n  assert(flag!=1);\r\n  users memory e = users(Account, name, gender, Address, phone, password);\r\n  users_address.push(e);\r\n}\r\n\r\nfunction add_mech(address Account, string memory name, string memory gender, string memory Address, \r\nstring memory phone, string memory garage) public \r\n{require(onlyRegisteredMech(Account) && msg.sender==Account);\r\n  // assert(msg.sender == addressAdmin);\r\n  uint256 flag = 0;\r\n  for(uint256 i=0;i<mech_address.length;i++)\r\n    {\r\n      if(mech_address[i].Account == Account){ \r\n       flag = 1;\r\n       break;\r\n                                             }\r\n    }\r\n     \r\n  assert(flag!=1);\r\n  mechanic memory e = mechanic(Account, name, gender, Address, phone, garage);\r\n  mech_address.push(e);\r\n}\r\n  \r\n \r\n  \r\nfunction addAuther(string  memory id ) internal \r\n{ \r\n  Auth_address[id].id = id;\r\n  Auth_address[id].owner = msg.sender;\r\n  Auth_address[id].auth_address.push(msg.sender);\r\n}\r\n\r\nfunction GrantViewPermission(string memory id , address add) public\r\n{ //users can add authorized users who can view their maintenance report\r\n  Auther storage transferObject = Auth_address[id];\r\n  assert(transferObject.owner == msg.sender);\r\n  transferObject.auth_address.push(add);\r\n}\r\n\r\n       \r\nfunction viewAllowed(string memory id) public view returns (address[] memory) \r\n{//users can view users who can view their maintenance report\r\n    Auther storage transferObject = Auth_address[id];\r\n    assert(transferObject.owner == msg.sender);\r\n    return transferObject.auth_address;\r\n}\r\n\r\nfunction viewAllOwner(string memory id) public returns (address[] memory) \r\n{//users can view users who can view their maintenance report\r\nassert(onlyRegistered(msg.sender));\r\n    OwnerList storage transferObject = ownerList[id];\r\n   // assert(transferObject.owner == msg.sender);\r\n    return transferObject.carOwner_address;\r\n}\r\n\r\n\r\nfunction RevokeViewPermission(string memory id , address account) public  \r\n{//users can remove authorized users who can view their maintenance report\r\n    \r\n    Auther storage transferObject = Auth_address[id];\r\n    assert(transferObject.owner == msg.sender);\r\n    uint index = 0;\r\n    bool flag = false;\r\n    for(uint i=0;i<transferObject.auth_address.length;i++){\r\n       if(transferObject.auth_address[i] == account )\r\n       { \r\n           index = i;\r\n           flag = true;\r\n           break;\r\n       }\r\n    }\r\n    assert(flag==true);\r\n    address element_address = transferObject.auth_address[index];\r\n    assert(element_address != Auth_address[id].owner );\r\n    transferObject.auth_address[index] = transferObject.auth_address[transferObject.auth_address.length - 1];\r\n    delete transferObject.auth_address[transferObject.auth_address.length - 1];\r\n}\r\n\r\nfunction getPassword(address Account) public view returns(string memory,string memory){\r\n   \r\n    uint i;\r\n    for (i = 0; i < users_address.length; i++) {\r\n        users memory e = users_address[i];\r\n        if (e.Account == Account) {\r\n         return (e.password,e.name);\r\n                                  }\r\n    }\r\n    return (\"Not Found\",\"Not Found\");\r\n}\r\n\r\nfunction viewUser(address Account) public returns(string memory, string memory,\r\n    string memory, string memory, string memory) \r\n{\r\n  require(onlyRegistered(msg.sender));\r\n    uint i;\r\n    for (i = 0; i < users_address.length; i++) {\r\n        users memory e = users_address[i];\r\n        if (e.Account == Account) {\r\n         return (e.name, e.gender, e.Address, e.phone, e.password);\r\n                                  }\r\n    }\r\n    return (\"Not Found\", \"Not Found\", \"Not Found\", \"Not Found\", \"Not Found\");\r\n}\r\n\r\n  \r\nfunction viewMechanic(address Account) public returns(string memory, string memory,\r\n    string memory, string memory, string memory) {\r\n      require(onlyRegistered(msg.sender));\r\n    uint i;\r\n    for (i = 0; i < mech_address.length; i++) {\r\n      mechanic memory e = mech_address[i];\r\n      if (e.Account == Account) {\r\n          return (e.name, e.gender, e.Address, e.phone, e.garage);\r\n                                }\r\n    }\r\n    return (\"Not Found\", \"Not Found\", \"Not Found\", \"Not Found\", \"Not Found\");\r\n}\r\n\r\n  \r\nfunction addCar(address owner , string memory vin,string memory brand_name, string memory model_name, string memory purchase_date, string memory owner_name, string memory isFirstHandOwner) public  {\r\n    uint256 flag1 = 0;\r\n  for(uint256 i=0;i<vin_array.length;i++){\r\n    if (keccak256(abi.encodePacked(vin_array[i] )) == keccak256(abi.encodePacked(vin))) {\r\n  // do something\r\n    flag1 = 1;\r\n        break;\r\n}\r\n     \r\n  }\r\n  assert(flag1==0);\r\n  uint256 flag = 0;\r\n  for(uint256 i=0;i<users_address.length;i++){\r\n      if(users_address[i].Account == owner){ \r\n        flag = 1;\r\n        break;\r\n                                            }\r\n  }\r\n  assert(flag==1);\r\n  assert(cars[vin].owner == 0x0000000000000000000000000000000000000000);// assert that owner value is not defined already\r\n       \r\n  cars[vin].vin = vin;\r\n  cars[vin].owner = msg.sender;\r\n\tcars[vin].brand_name = brand_name;\r\n\tcars[vin].model_name = model_name;\r\n\tcars[vin].purchase_date = purchase_date;\r\n  cars[vin].owner_name = owner_name;\r\n  cars[vin].isFirstHandOwner = isFirstHandOwner;\r\n\r\n    \r\n  maintenance[vin].vin = vin;\r\n   maintenance[vin].count = 1; \r\n   addAuther(vin); //so that car owner can view his maintenace report\r\n   vin_array.push(vin);\r\n   ownerList[vin].vin = vin;\r\n   ownerList[vin].carOwner_address.push(owner);\r\n\r\n \r\n   emit Creation(msg.sender, vin);//calling the event creation\r\n   \r\n}\r\n \r\n function getVin() public returns (string[] memory ){\r\n   require(onlyRegistered(msg.sender));\r\n   return vin_array;\r\n\r\n }\r\n\r\nfunction getUsers() public  returns (address  []memory){\r\n   require(onlyRegistered(msg.sender));\r\n   return account_RegisterdUser;\r\n\r\n }\r\n function getMechanics() public returns (address []memory ){\r\n   require(onlyRegistered(msg.sender));\r\n   return account_RegisterdMech;\r\n\r\n }\r\nuint256 num = 8;\r\n//  function getReportCount(string memory vin) public returns (uint256 ){\r\n  \r\n//    //  assert(onlyAllowed(cars[vin].vin) == true);//if condition specified so that only authorized user/mechanic can view maintenance report\r\n\r\n//      // Maintenance storage transferObject = maintenance[vin];\r\n//      return num;\r\n\r\n//  }\r\n \r\n\r\n \r\nfunction viewCar(string memory vin) public  returns(address owner,  string memory  brand_name, \r\nstring memory model_name,  string memory purchase_date , string memory owner_name , string memory isFirstHandOwner) {\r\n        //only users added into system can view a car detail\r\nrequire(onlyRegistered(msg.sender));\r\n      car storage transferObject = cars[vin];\r\n      //assert(transferObject.owner == msg.sender); \r\n      owner = cars[vin].owner;\r\n      brand_name = cars[vin].brand_name;\r\n      model_name = cars[vin]. model_name ;\r\n      purchase_date = cars[vin].purchase_date;\r\n      owner_name = cars[vin].owner_name;\r\n      isFirstHandOwner = cars[vin].isFirstHandOwner;\r\n}\r\n\r\n\r\n\r\n \r\nfunction transferOwnership(string memory vin, address owner , string memory new_owner_name) public  \r\n{ \r\n      //to tranfer ownership of a car to another user in the system\r\n\r\n      car storage transferObject = cars[vin];\r\n      assert(transferObject.owner == msg.sender); \r\n      transferObject.owner = owner;\r\n      transferObject.owner_name = new_owner_name;//new owner name\r\n      transferObject.isFirstHandOwner = \"false\"; //after the tranfer of ownership this variable value will become false\r\n\r\n      Auther storage transferObject2 = Auth_address[vin];\r\n      assert(transferObject2.owner == msg.sender);\r\n      transferObject2.owner = owner;\r\n      //delete transferObject2.auth_address;//............................................................................................\r\n      transferObject2.auth_address[0] = owner;\r\n\r\n       OwnerList storage transferObject3 = ownerList[vin];\r\n       transferObject3.carOwner_address.push(owner);\r\n      emit Transfer(msg.sender, owner, vin);//call event Transfer\r\n\r\n} \r\n\r\nfunction updateMaintenanceReport(string  memory vin , string  memory  vehicleCondition, \r\nstring memory  currentOdometer, string memory  currentEngineHours, string memory  lastService, \r\nstring memory  ServiceType,string  memory  partsReplaced,string memory  cost,string  memory  isUnderInsurance, \r\nstring memory  Message ) public onlyMechanic() {\r\n\r\n  //to update maintenance report ...only accessible by mechanic who has been added into system by admin\r\n       \r\n if(onlyAllowed(vin) == true){ //if condition specified so that only authorized mechanic can update maintenace report\r\n   uint256 flag = 0;\r\n   for(uint256 i=0;i<mech_address.length;i++){\r\n      if(mech_address[i].Account == msg.sender){ \r\n        flag = 1;\r\n        break;\r\n                                                }\r\n   }\r\n     \r\n   require(flag==1);\r\n   Maintenance storage transferObject = maintenance[vin];\r\n   transferObject.vin = vin;\r\n   transferObject.vehicleCondition.push(vehicleCondition);\r\n   transferObject.currentOdometer.push(currentOdometer);\r\n   transferObject.currentEngineHours.push(currentEngineHours);\r\n   transferObject.lastService.push(lastService);\r\n   transferObject.ServiceType.push(ServiceType);\r\n   transferObject.partsReplaced.push(partsReplaced);\r\n   transferObject.cost.push(cost);\r\n   transferObject.isUnderInsurance.push(isUnderInsurance);\r\n   transferObject.Message.push(Message);\r\n   transferObject.count =  transferObject.count + 1;\r\n\r\n   }\r\n    \r\n}\r\n    \r\nfunction viewMaintenaceReport(string memory vin)  public returns( string memory vehicleCondition, \r\nstring memory currentOdometer, string memory currentEngineHours, string memory lastService, \r\nstring memory ServiceType,string memory  partsReplaced,string memory cost,string memory isUnderInsurance,\r\nstring memory Message , uint256 num)  {\r\n    assert(onlyAllowed(cars[vin].vin) == true);//if condition specified so that only authorized user/mechanic can view maintenance report\r\n\r\n      Maintenance storage transferObject = maintenance[vin];\r\n      uint256 n = transferObject.currentOdometer.length-1;\r\n      vehicleCondition = transferObject.vehicleCondition[n];\r\n      currentOdometer = transferObject.currentOdometer[n];\r\n      currentEngineHours = transferObject.currentEngineHours[n];\r\n      lastService = transferObject.lastService[n];\r\n      ServiceType = transferObject.ServiceType[n];\r\n      partsReplaced = transferObject.partsReplaced[n];\r\n      cost = transferObject.cost[n];\r\n      isUnderInsurance = transferObject.isUnderInsurance[n];\r\n      Message = transferObject.Message[n];\r\n      num = n;\r\n    \r\n}\r\n\r\nfunction viewMaintenaceReportByIndex(string memory vin, uint256 n)  public returns( string memory vehicleCondition, \r\nstring memory currentOdometer, string memory currentEngineHours, string memory lastService, \r\nstring memory ServiceType, string memory  partsReplaced,string memory cost,string memory isUnderInsurance,\r\nstring memory Message)  {\r\n   // assert(onlyAllowed(cars[vin].vin) == true);//if condition specified so that only authorized user/mechanic can view maintenance report\r\n\r\n      Maintenance storage transferObject = maintenance[vin];\r\n     // uint256 n = transferObject.currentOdometer.length-1;\r\n      vehicleCondition = transferObject.vehicleCondition[n];\r\n      currentOdometer = transferObject.currentOdometer[n];\r\n      currentEngineHours = transferObject.currentEngineHours[n];\r\n      lastService = transferObject.lastService[n];\r\n      ServiceType = transferObject.ServiceType[n];\r\n      partsReplaced = transferObject.partsReplaced[n];\r\n      cost = transferObject.cost[n];\r\n      isUnderInsurance = transferObject.isUnderInsurance[n];\r\n      Message = transferObject.Message[n];\r\n    //  num = n;\r\n    \r\n}\r\n\r\nmodifier onlyMechanic(){ //modifier \r\n  uint flag = 0;\r\n  for(uint256 j=0;j<mech_address.length;j++){\r\n    if(mech_address[j].Account == msg.sender){\r\n        flag = 1;\r\n        break;\r\n                                    }\r\n  }\r\n  require(flag == 1);\r\n  _;\r\n}\r\n\r\nfunction onlyAllowed(string memory id) internal returns (bool){ //function to restrict access...used internal keyword\r\n  uint flag = 0;\r\n  for(uint256 j=0;j<Auth_address[id].auth_address.length;j++){\r\n      //id is same as vin for car for a particular owner\r\n      //auth_address is array which contain all users allowed by car owner to view mainteanace report\r\n      if(Auth_address[id].auth_address[j] == msg.sender){\r\n                flag = 1;\r\n                break;\r\n                                                        }\r\n  }\r\n  if(flag==1)\r\n      return true;\r\n  else\r\n      return false;\r\n}\r\n\r\n\r\n\r\n\r\n//function onlyAllowed(string memory id) internal returns (bool){ //function to restrict access...used internal keyword\r\n \r\n//}\r\n\r\n\r\n\r\n\r\n\r\n\r\n //function get_array() public view returns( car[] memory){\r\n   //   return(vehicle);\r\n  //}\r\n}\r\n\r\n",
  "sourcePath": "C:\\Users\\praty\\Desktop\\VehicularDataManagementSystemAndTradingUsingBlockchainTechnology\\contracts\\Structregistry.sol",
  "compiler": {
    "name": "solc",
    "version": "0.7.6+commit.7338295f.Emscripten.clang"
  },
  "schemaVersion": "3.4.7",
  "updatedAt": "2022-06-18T01:40:58.062Z",
  "networkType": "ethereum",
  "devdoc": {
    "kind": "dev",
    "methods": {},
    "version": 1
  },
  "userdoc": {
    "kind": "user",
    "methods": {},
    "version": 1
  }
}