{
  "contractName": "VehicleDataManagement",
  "abi": [
    {
      "inputs": [],
      "payable": false,
      "stateMutability": "nonpayable",
      "type": "constructor"
    },
    {
      "anonymous": false,
      "inputs": [
        {
          "indexed": true,
          "name": "from",
          "type": "address"
        },
        {
          "indexed": true,
          "name": "vin",
          "type": "string"
        }
      ],
      "name": "Creation",
      "type": "event"
    },
    {
      "anonymous": false,
      "inputs": [
        {
          "indexed": true,
          "name": "from",
          "type": "address"
        },
        {
          "indexed": true,
          "name": "to",
          "type": "address"
        },
        {
          "indexed": true,
          "name": "vin",
          "type": "string"
        }
      ],
      "name": "Transfer",
      "type": "event"
    },
    {
      "constant": false,
      "inputs": [
        {
          "name": "add",
          "type": "address"
        }
      ],
      "name": "addUser",
      "outputs": [],
      "payable": false,
      "stateMutability": "nonpayable",
      "type": "function"
    },
    {
      "constant": false,
      "inputs": [
        {
          "name": "add",
          "type": "address"
        }
      ],
      "name": "addMechanic",
      "outputs": [],
      "payable": false,
      "stateMutability": "nonpayable",
      "type": "function"
    },
    {
      "constant": false,
      "inputs": [
        {
          "name": "id",
          "type": "string"
        },
        {
          "name": "add",
          "type": "address"
        }
      ],
      "name": "GrantViewPermission",
      "outputs": [],
      "payable": false,
      "stateMutability": "nonpayable",
      "type": "function"
    },
    {
      "constant": true,
      "inputs": [
        {
          "name": "id",
          "type": "string"
        }
      ],
      "name": "viewAllowed",
      "outputs": [
        {
          "name": "",
          "type": "address[]"
        }
      ],
      "payable": false,
      "stateMutability": "view",
      "type": "function"
    },
    {
      "constant": false,
      "inputs": [
        {
          "name": "id",
          "type": "string"
        },
        {
          "name": "index",
          "type": "uint256"
        }
      ],
      "name": "RevokeViewPermission",
      "outputs": [],
      "payable": false,
      "stateMutability": "nonpayable",
      "type": "function"
    },
    {
      "constant": false,
      "inputs": [
        {
          "name": "vin",
          "type": "string"
        },
        {
          "name": "brand_name",
          "type": "string"
        },
        {
          "name": "model_name",
          "type": "string"
        },
        {
          "name": "purchase_date",
          "type": "string"
        },
        {
          "name": "owner_name",
          "type": "string"
        },
        {
          "name": "isFirstHandOwner",
          "type": "bool"
        }
      ],
      "name": "addCar",
      "outputs": [],
      "payable": false,
      "stateMutability": "nonpayable",
      "type": "function"
    },
    {
      "constant": false,
      "inputs": [
        {
          "name": "vin",
          "type": "string"
        },
        {
          "name": "vehicleCondition",
          "type": "string"
        },
        {
          "name": "currentOdometer",
          "type": "uint256"
        },
        {
          "name": "currentEngineHours",
          "type": "uint256"
        },
        {
          "name": "lastService",
          "type": "string"
        },
        {
          "name": "ServiceType",
          "type": "string"
        },
        {
          "name": "partsReplaced",
          "type": "bool"
        },
        {
          "name": "cost",
          "type": "uint256"
        },
        {
          "name": "isUnderInsurance",
          "type": "bool"
        },
        {
          "name": "Message",
          "type": "string"
        }
      ],
      "name": "updateMaintenanceReport",
      "outputs": [],
      "payable": false,
      "stateMutability": "nonpayable",
      "type": "function"
    },
    {
      "constant": false,
      "inputs": [
        {
          "name": "vin",
          "type": "string"
        },
        {
          "name": "owner",
          "type": "address"
        },
        {
          "name": "new_owner_name",
          "type": "string"
        }
      ],
      "name": "transferOwnership",
      "outputs": [],
      "payable": false,
      "stateMutability": "nonpayable",
      "type": "function"
    },
    {
      "constant": true,
      "inputs": [
        {
          "name": "vin",
          "type": "string"
        }
      ],
      "name": "viewCar",
      "outputs": [
        {
          "name": "owner",
          "type": "address"
        },
        {
          "name": "brand_name",
          "type": "string"
        },
        {
          "name": "model_name",
          "type": "string"
        },
        {
          "name": "purchase_date",
          "type": "string"
        },
        {
          "name": "owner_name",
          "type": "string"
        },
        {
          "name": "isFirstHandOwner",
          "type": "bool"
        }
      ],
      "payable": false,
      "stateMutability": "view",
      "type": "function"
    },
    {
      "constant": true,
      "inputs": [
        {
          "name": "vin",
          "type": "string"
        }
      ],
      "name": "viewMaintenaceReport",
      "outputs": [
        {
          "name": "vehicleCondition",
          "type": "string"
        },
        {
          "name": "currentOdometer",
          "type": "uint256"
        },
        {
          "name": "currentEngineHours",
          "type": "uint256"
        },
        {
          "name": "lastService",
          "type": "string"
        },
        {
          "name": "ServiceType",
          "type": "string"
        },
        {
          "name": "partsReplaced",
          "type": "bool"
        },
        {
          "name": "cost",
          "type": "uint256"
        },
        {
          "name": "isUnderInsurance",
          "type": "bool"
        },
        {
          "name": "Message",
          "type": "string"
        }
      ],
      "payable": false,
      "stateMutability": "view",
      "type": "function"
    }
  ],
  "bytecode": "0x6080604052735b38da6a701c568545dcfcb03fcb875f56beddc4600560006101000a81548173ffffffffffffffffffffffffffffffffffffffff021916908373ffffffffffffffffffffffffffffffffffffffff16021790555034801561006557600080fd5b5061327f806100756000396000f3006080604052600436106100a4576000357c0100000000000000000000000000000000000000000000000000000000900463ffffffff168063068d389a146100a9578063357645521461030d5780633f939509146103dc578063421b2d8b1461056957806376a24463146105ac5780637f4f739a146107fd57806397a9f12c146108bb578063a2ae5ef51461092e578063d8207763146109b7578063e401b36c146109fa575b600080fd5b3480156100b557600080fd5b50610110600480360381019080803590602001908201803590602001908080601f0160208091040260200160405190810160405280939291908181526020018383808284378201915050505050509192919290505050610bb1565b604051808773ffffffffffffffffffffffffffffffffffffffff1673ffffffffffffffffffffffffffffffffffffffff168152602001806020018060200180602001806020018615151515815260200185810385528a818151815260200191508051906020019080838360005b8381101561019857808201518184015260208101905061017d565b50505050905090810190601f1680156101c55780820380516001836020036101000a031916815260200191505b50858103845289818151815260200191508051906020019080838360005b838110156101fe5780820151818401526020810190506101e3565b50505050905090810190601f16801561022b5780820380516001836020036101000a031916815260200191505b50858103835288818151815260200191508051906020019080838360005b83811015610264578082015181840152602081019050610249565b50505050905090810190601f1680156102915780820380516001836020036101000a031916815260200191505b50858103825287818151815260200191508051906020019080838360005b838110156102ca5780820151818401526020810190506102af565b50505050905090810190601f1680156102f75780820380516001836020036101000a031916815260200191505b509a505050505050505050505060405180910390f35b34801561031957600080fd5b506103da600480360381019080803590602001908201803590602001908080601f0160208091040260200160405190810160405280939291908181526020018383808284378201915050505050509192919290803573ffffffffffffffffffffffffffffffffffffffff169060200190929190803590602001908201803590602001908080601f0160208091040260200160405190810160405280939291908181526020018383808284378201915050505050509192919290505050611213565b005b3480156103e857600080fd5b50610567600480360381019080803590602001908201803590602001908080601f0160208091040260200160405190810160405280939291908181526020018383808284378201915050505050509192919290803590602001908201803590602001908080601f0160208091040260200160405190810160405280939291908181526020018383808284378201915050505050509192919290803590602001908201803590602001908080601f0160208091040260200160405190810160405280939291908181526020018383808284378201915050505050509192919290803590602001908201803590602001908080601f0160208091040260200160405190810160405280939291908181526020018383808284378201915050505050509192919290803590602001908201803590602001908080601f016020809104026020016040519081016040528093929190818152602001838380828437820191505050505050919291929080351515906020019092919050505061162e565b005b34801561057557600080fd5b506105aa600480360381019080803573ffffffffffffffffffffffffffffffffffffffff169060200190929190505050611bda565b005b3480156105b857600080fd5b50610613600480360381019080803590602001908201803590602001908080601f0160208091040260200160405190810160405280939291908181526020018383808284378201915050505050509192919290505050611c8e565b60405180806020018a8152602001898152602001806020018060200188151515158152602001878152602001861515151581526020018060200185810385528e818151815260200191508051906020019080838360005b8381101561068557808201518184015260208101905061066a565b50505050905090810190601f1680156106b25780820380516001836020036101000a031916815260200191505b5085810384528b818151815260200191508051906020019080838360005b838110156106eb5780820151818401526020810190506106d0565b50505050905090810190601f1680156107185780820380516001836020036101000a031916815260200191505b5085810383528a818151815260200191508051906020019080838360005b83811015610751578082015181840152602081019050610736565b50505050905090810190601f16801561077e5780820380516001836020036101000a031916815260200191505b50858103825286818151815260200191508051906020019080838360005b838110156107b757808201518184015260208101905061079c565b50505050905090810190601f1680156107e45780820380516001836020036101000a031916815260200191505b509d505050505050505050505050505060405180910390f35b34801561080957600080fd5b50610864600480360381019080803590602001908201803590602001908080601f01602080910402602001604051908101604052809392919081815260200183838082843782019150505050505091929192905050506124a9565b6040518080602001828103825283818151815260200191508051906020019060200280838360005b838110156108a757808201518184015260208101905061088c565b505050509050019250505060405180910390f35b3480156108c757600080fd5b5061092c600480360381019080803590602001908201803590602001908080601f016020809104026020016040519081016040528093929190818152602001838380828437820191505050505050919291929080359060200190929190505050612606565b005b34801561093a57600080fd5b506109b5600480360381019080803590602001908201803590602001908080601f0160208091040260200160405190810160405280939291908181526020018383808284378201915050505050509192919290803573ffffffffffffffffffffffffffffffffffffffff169060200190929190505050612920565b005b3480156109c357600080fd5b506109f8600480360381019080803573ffffffffffffffffffffffffffffffffffffffff169060200190929190505050612b6d565b005b348015610a0657600080fd5b50610baf600480360381019080803590602001908201803590602001908080601f0160208091040260200160405190810160405280939291908181526020018383808284378201915050505050509192919290803590602001908201803590602001908080601f01602080910402602001604051908101604052809392919081815260200183838082843782019150505050505091929192908035906020019092919080359060200190929190803590602001908201803590602001908080601f0160208091040260200160405190810160405280939291908181526020018383808284378201915050505050509192919290803590602001908201803590602001908080601f016020809104026020016040519081016040528093929190818152602001838380828437820191505050505050919291929080351515906020019092919080359060200190929190803515159060200190929190803590602001908201803590602001908080601f0160208091040260200160405190810160405280939291908181526020018383808284378201915050505050509192919290505050612c21565b005b600060608060608060008060008060009150600090505b600080549050811015610c58573373ffffffffffffffffffffffffffffffffffffffff16600082815481101515610bfb57fe5b9060005260206000200160009054906101000a900473ffffffffffffffffffffffffffffffffffffffff1673ffffffffffffffffffffffffffffffffffffffff161415610c4b5760019150610c58565b8080600101915050610bc8565b600182141515610c6757600080fd5b60048a6040518082805190602001908083835b602083101515610c9f5780518252602082019150602081019050602083039250610c7a565b6001836020036101000a0380198251168184511680821785525050505050509050019150509081526020016040518091039020925060048a6040518082805190602001908083835b602083101515610d0c5780518252602082019150602081019050602083039250610ce7565b6001836020036101000a038019825116818451168082178552505050505050905001915050908152602001604051809103902060010160009054906101000a900473ffffffffffffffffffffffffffffffffffffffff16985060048a6040518082805190602001908083835b602083101515610d9d5780518252602082019150602081019050602083039250610d78565b6001836020036101000a03801982511681845116808217855250505050505090500191505090815260200160405180910390206002018054600181600116156101000203166002900480601f016020809104026020016040519081016040528092919081815260200182805460018160011615610100020316600290048015610e675780601f10610e3c57610100808354040283529160200191610e67565b820191906000526020600020905b815481529060010190602001808311610e4a57829003601f168201915b5050505050975060048a6040518082805190602001908083835b602083101515610ea65780518252602082019150602081019050602083039250610e81565b6001836020036101000a03801982511681845116808217855250505050505090500191505090815260200160405180910390206003018054600181600116156101000203166002900480601f016020809104026020016040519081016040528092919081815260200182805460018160011615610100020316600290048015610f705780601f10610f4557610100808354040283529160200191610f70565b820191906000526020600020905b815481529060010190602001808311610f5357829003601f168201915b5050505050965060048a6040518082805190602001908083835b602083101515610faf5780518252602082019150602081019050602083039250610f8a565b6001836020036101000a03801982511681845116808217855250505050505090500191505090815260200160405180910390206004018054600181600116156101000203166002900480601f0160208091040260200160405190810160405280929190818152602001828054600181600116156101000203166002900480156110795780601f1061104e57610100808354040283529160200191611079565b820191906000526020600020905b81548152906001019060200180831161105c57829003601f168201915b5050505050955060048a6040518082805190602001908083835b6020831015156110b85780518252602082019150602081019050602083039250611093565b6001836020036101000a03801982511681845116808217855250505050505090500191505090815260200160405180910390206005018054600181600116156101000203166002900480601f0160208091040260200160405190810160405280929190818152602001828054600181600116156101000203166002900480156111825780601f1061115757610100808354040283529160200191611182565b820191906000526020600020905b81548152906001019060200180831161116557829003601f168201915b5050505050945060048a6040518082805190602001908083835b6020831015156111c1578051825260208201915060208101905060208303925061119c565b6001836020036101000a038019825116818451168082178552505050505050905001915050908152602001604051809103902060060160009054906101000a900460ff16935050505091939550919395565b60008060008060009150600090505b6000805490508110156112b2573373ffffffffffffffffffffffffffffffffffffffff1660008281548110151561125557fe5b9060005260206000200160009054906101000a900473ffffffffffffffffffffffffffffffffffffffff1673ffffffffffffffffffffffffffffffffffffffff1614156112a557600191506112b2565b8080600101915050611222565b6001821415156112c157600080fd5b6004876040518082805190602001908083835b6020831015156112f957805182526020820191506020810190506020830392506112d4565b6001836020036101000a038019825116818451168082178552505050505050905001915050908152602001604051809103902093503373ffffffffffffffffffffffffffffffffffffffff168460010160009054906101000a900473ffffffffffffffffffffffffffffffffffffffff1673ffffffffffffffffffffffffffffffffffffffff1614151561138957fe5b858460010160006101000a81548173ffffffffffffffffffffffffffffffffffffffff021916908373ffffffffffffffffffffffffffffffffffffffff160217905550848460050190805190602001906113e49291906131ae565b5060008460060160006101000a81548160ff0219169083151502179055506002876040518082805190602001908083835b60208310151561143a5780518252602082019150602081019050602083039250611415565b6001836020036101000a038019825116818451168082178552505050505050905001915050908152602001604051809103902092503373ffffffffffffffffffffffffffffffffffffffff168360010160009054906101000a900473ffffffffffffffffffffffffffffffffffffffff1673ffffffffffffffffffffffffffffffffffffffff161415156114ca57fe5b858360010160006101000a81548173ffffffffffffffffffffffffffffffffffffffff021916908373ffffffffffffffffffffffffffffffffffffffff1602179055508583600201600081548110151561152057fe5b9060005260206000200160006101000a81548173ffffffffffffffffffffffffffffffffffffffff021916908373ffffffffffffffffffffffffffffffffffffffff160217905550866040518082805190602001908083835b60208310151561159e5780518252602082019150602081019050602083039250611579565b6001836020036101000a03801982511681845116808217855250505050505090500191505060405180910390208673ffffffffffffffffffffffffffffffffffffffff163373ffffffffffffffffffffffffffffffffffffffff167f55e10366a5f552746106978b694d7ef3bbddec06bd5f9b9d15ad46f475c653ef60405160405180910390a450505050505050565b60006004876040518082805190602001908083835b6020831015156116685780518252602082019150602081019050602083039250611643565b6001836020036101000a038019825116818451168082178552505050505050905001915050908152602001604051809103902060010160009054906101000a900473ffffffffffffffffffffffffffffffffffffffff1673ffffffffffffffffffffffffffffffffffffffff161415156116de57fe5b856004876040518082805190602001908083835b60208310151561171757805182526020820191506020810190506020830392506116f2565b6001836020036101000a038019825116818451168082178552505050505050905001915050908152602001604051809103902060000190805190602001906117609291906131ae565b50336004876040518082805190602001908083835b60208310151561179a5780518252602082019150602081019050602083039250611775565b6001836020036101000a038019825116818451168082178552505050505050905001915050908152602001604051809103902060010160006101000a81548173ffffffffffffffffffffffffffffffffffffffff021916908373ffffffffffffffffffffffffffffffffffffffff160217905550846004876040518082805190602001908083835b6020831015156118475780518252602082019150602081019050602083039250611822565b6001836020036101000a038019825116818451168082178552505050505050905001915050908152602001604051809103902060020190805190602001906118909291906131ae565b50836004876040518082805190602001908083835b6020831015156118ca57805182526020820191506020810190506020830392506118a5565b6001836020036101000a038019825116818451168082178552505050505050905001915050908152602001604051809103902060030190805190602001906119139291906131ae565b50826004876040518082805190602001908083835b60208310151561194d5780518252602082019150602081019050602083039250611928565b6001836020036101000a038019825116818451168082178552505050505050905001915050908152602001604051809103902060040190805190602001906119969291906131ae565b50816004876040518082805190602001908083835b6020831015156119d057805182526020820191506020810190506020830392506119ab565b6001836020036101000a03801982511681845116808217855250505050505090500191505090815260200160405180910390206005019080519060200190611a199291906131ae565b50806004876040518082805190602001908083835b602083101515611a535780518252602082019150602081019050602083039250611a2e565b6001836020036101000a038019825116818451168082178552505050505050905001915050908152602001604051809103902060060160006101000a81548160ff021916908315150217905550856003876040518082805190602001908083835b602083101515611ad95780518252602082019150602081019050602083039250611ab4565b6001836020036101000a03801982511681845116808217855250505050505090500191505090815260200160405180910390206000019080519060200190611b229291906131ae565b50611b2c86612e16565b856040518082805190602001908083835b602083101515611b625780518252602082019150602081019050602083039250611b3d565b6001836020036101000a03801982511681845116808217855250505050505090500191505060405180910390203373ffffffffffffffffffffffffffffffffffffffff167f7576f50ccb78780070e33f52db6f472443623d0b8531b84deecbdd9df393367d60405160405180910390a3505050505050565b735b38da6a701c568545dcfcb03fcb875f56beddc473ffffffffffffffffffffffffffffffffffffffff163373ffffffffffffffffffffffffffffffffffffffff16141515611c2557fe5b60008190806001815401808255809150509060018203906000526020600020016000909192909190916101000a81548173ffffffffffffffffffffffffffffffffffffffff021916908373ffffffffffffffffffffffffffffffffffffffff1602179055505050565b606060008060608060008060006060600060011515611db260048d6040518082805190602001908083835b602083101515611cde5780518252602082019150602081019050602083039250611cb9565b6001836020036101000a03801982511681845116808217855250505050505090500191505090815260200160405180910390206000018054600181600116156101000203166002900480601f016020809104026020016040519081016040528092919081815260200182805460018160011615610100020316600290048015611da85780601f10611d7d57610100808354040283529160200191611da8565b820191906000526020600020905b815481529060010190602001808311611d8b57829003601f168201915b505050505061301b565b1515141561249b5760038b6040518082805190602001908083835b602083101515611df25780518252602082019150602081019050602083039250611dcd565b6001836020036101000a0380198251168184511680821785525050505050509050019150509081526020016040518091039020905060038b6040518082805190602001908083835b602083101515611e5f5780518252602082019150602081019050602083039250611e3a565b6001836020036101000a03801982511681845116808217855250505050505090500191505090815260200160405180910390206001018054600181600116156101000203166002900480601f016020809104026020016040519081016040528092919081815260200182805460018160011615610100020316600290048015611f295780601f10611efe57610100808354040283529160200191611f29565b820191906000526020600020905b815481529060010190602001808311611f0c57829003601f168201915b5050505050995060038b6040518082805190602001908083835b602083101515611f685780518252602082019150602081019050602083039250611f43565b6001836020036101000a038019825116818451168082178552505050505050905001915050908152602001604051809103902060020154985060038b6040518082805190602001908083835b602083101515611fd95780518252602082019150602081019050602083039250611fb4565b6001836020036101000a038019825116818451168082178552505050505050905001915050908152602001604051809103902060030154975060038b6040518082805190602001908083835b60208310151561204a5780518252602082019150602081019050602083039250612025565b6001836020036101000a03801982511681845116808217855250505050505090500191505090815260200160405180910390206004018054600181600116156101000203166002900480601f0160208091040260200160405190810160405280929190818152602001828054600181600116156101000203166002900480156121145780601f106120e957610100808354040283529160200191612114565b820191906000526020600020905b8154815290600101906020018083116120f757829003601f168201915b5050505050965060038b6040518082805190602001908083835b602083101515612153578051825260208201915060208101905060208303925061212e565b6001836020036101000a03801982511681845116808217855250505050505090500191505090815260200160405180910390206005018054600181600116156101000203166002900480601f01602080910402602001604051908101604052809291908181526020018280546001816001161561010002031660029004801561221d5780601f106121f25761010080835404028352916020019161221d565b820191906000526020600020905b81548152906001019060200180831161220057829003601f168201915b5050505050955060038b6040518082805190602001908083835b60208310151561225c5780518252602082019150602081019050602083039250612237565b6001836020036101000a038019825116818451168082178552505050505050905001915050908152602001604051809103902060060160009054906101000a900460ff16945060038b6040518082805190602001908083835b6020831015156122da57805182526020820191506020810190506020830392506122b5565b6001836020036101000a038019825116818451168082178552505050505050905001915050908152602001604051809103902060070154935060038b6040518082805190602001908083835b60208310151561234b5780518252602082019150602081019050602083039250612326565b6001836020036101000a038019825116818451168082178552505050505050905001915050908152602001604051809103902060080160009054906101000a900460ff16925060038b6040518082805190602001908083835b6020831015156123c957805182526020820191506020810190506020830392506123a4565b6001836020036101000a03801982511681845116808217855250505050505090500191505090815260200160405180910390206009018054600181600116156101000203166002900480601f0160208091040260200160405190810160405280929190818152602001828054600181600116156101000203166002900480156124935780601f1061246857610100808354040283529160200191612493565b820191906000526020600020905b81548152906001019060200180831161247657829003601f168201915b505050505091505b509193959799909294969850565b606060006002836040518082805190602001908083835b6020831015156124e557805182526020820191506020810190506020830392506124c0565b6001836020036101000a038019825116818451168082178552505050505050905001915050908152602001604051809103902090503373ffffffffffffffffffffffffffffffffffffffff168160010160009054906101000a900473ffffffffffffffffffffffffffffffffffffffff1673ffffffffffffffffffffffffffffffffffffffff1614151561257557fe5b806002018054806020026020016040519081016040528092919081815260200182805480156125f957602002820191906000526020600020905b8160009054906101000a900473ffffffffffffffffffffffffffffffffffffffff1673ffffffffffffffffffffffffffffffffffffffff16815260200190600101908083116125af575b5050505050915050919050565b60008060008060009150600090505b6000805490508110156126a5573373ffffffffffffffffffffffffffffffffffffffff1660008281548110151561264857fe5b9060005260206000200160009054906101000a900473ffffffffffffffffffffffffffffffffffffffff1673ffffffffffffffffffffffffffffffffffffffff16141561269857600191506126a5565b8080600101915050612615565b6001821415156126b457600080fd5b6002866040518082805190602001908083835b6020831015156126ec57805182526020820191506020810190506020830392506126c7565b6001836020036101000a038019825116818451168082178552505050505050905001915050908152602001604051809103902093503373ffffffffffffffffffffffffffffffffffffffff166002876040518082805190602001908083835b602083101515612770578051825260208201915060208101905060208303925061274b565b6001836020036101000a038019825116818451168082178552505050505050905001915050908152602001604051809103902060010160009054906101000a900473ffffffffffffffffffffffffffffffffffffffff1673ffffffffffffffffffffffffffffffffffffffff161415156127e657fe5b600085141515156127f357fe5b836002018581548110151561280457fe5b9060005260206000200160009054906101000a900473ffffffffffffffffffffffffffffffffffffffff16925083600201600185600201805490500381548110151561284c57fe5b9060005260206000200160009054906101000a900473ffffffffffffffffffffffffffffffffffffffff16846002018681548110151561288857fe5b9060005260206000200160006101000a81548173ffffffffffffffffffffffffffffffffffffffff021916908373ffffffffffffffffffffffffffffffffffffffff1602179055508360020160018560020180549050038154811015156128eb57fe5b9060005260206000200160006101000a81549073ffffffffffffffffffffffffffffffffffffffff0219169055505050505050565b6000806000809150600090505b6000805490508110156129bd573373ffffffffffffffffffffffffffffffffffffffff1660008281548110151561296057fe5b9060005260206000200160009054906101000a900473ffffffffffffffffffffffffffffffffffffffff1673ffffffffffffffffffffffffffffffffffffffff1614156129b057600191506129bd565b808060010191505061292d565b6001821415156129cc57600080fd5b6002856040518082805190602001908083835b602083101515612a0457805182526020820191506020810190506020830392506129df565b6001836020036101000a038019825116818451168082178552505050505050905001915050908152602001604051809103902092503373ffffffffffffffffffffffffffffffffffffffff166002866040518082805190602001908083835b602083101515612a885780518252602082019150602081019050602083039250612a63565b6001836020036101000a038019825116818451168082178552505050505050905001915050908152602001604051809103902060010160009054906101000a900473ffffffffffffffffffffffffffffffffffffffff1673ffffffffffffffffffffffffffffffffffffffff16141515612afe57fe5b826002018490806001815401808255809150509060018203906000526020600020016000909192909190916101000a81548173ffffffffffffffffffffffffffffffffffffffff021916908373ffffffffffffffffffffffffffffffffffffffff160217905550505050505050565b735b38da6a701c568545dcfcb03fcb875f56beddc473ffffffffffffffffffffffffffffffffffffffff163373ffffffffffffffffffffffffffffffffffffffff16141515612bb857fe5b60018190806001815401808255809150509060018203906000526020600020016000909192909190916101000a81548173ffffffffffffffffffffffffffffffffffffffff021916908373ffffffffffffffffffffffffffffffffffffffff1602179055505050565b6000806000809150600090505b600180549050811015612cbe573373ffffffffffffffffffffffffffffffffffffffff16600182815481101515612c6157fe5b9060005260206000200160009054906101000a900473ffffffffffffffffffffffffffffffffffffffff1673ffffffffffffffffffffffffffffffffffffffff161415612cb15760019150612cbe565b8080600101915050612c2e565b600182141515612ccd57600080fd5b60011515612cda8e61301b565b15151415612e075760038d6040518082805190602001908083835b602083101515612d1a5780518252602082019150602081019050602083039250612cf5565b6001836020036101000a038019825116818451168082178552505050505050905001915050908152602001604051809103902092508b836001019080519060200190612d679291906131ae565b508a836002018190555089836003018190555088836004019080519060200190612d929291906131ae565b5087836005019080519060200190612dab9291906131ae565b50868360060160006101000a81548160ff021916908315150217905550858360070181905550848360080160006101000a81548160ff02191690831515021790555083836009019080519060200190612e059291906131ae565b505b50505050505050505050505050565b806002826040518082805190602001908083835b602083101515612e4f5780518252602082019150602081019050602083039250612e2a565b6001836020036101000a03801982511681845116808217855250505050505090500191505090815260200160405180910390206000019080519060200190612e989291906131ae565b50336002826040518082805190602001908083835b602083101515612ed25780518252602082019150602081019050602083039250612ead565b6001836020036101000a038019825116818451168082178552505050505050905001915050908152602001604051809103902060010160006101000a81548173ffffffffffffffffffffffffffffffffffffffff021916908373ffffffffffffffffffffffffffffffffffffffff1602179055506002816040518082805190602001908083835b602083101515612f7e5780518252602082019150602081019050602083039250612f59565b6001836020036101000a03801982511681845116808217855250505050505090500191505090815260200160405180910390206002013390806001815401808255809150509060018203906000526020600020016000909192909190916101000a81548173ffffffffffffffffffffffffffffffffffffffff021916908373ffffffffffffffffffffffffffffffffffffffff1602179055505050565b6000806000809150600090505b6002846040518082805190602001908083835b602083101515613060578051825260208201915060208101905060208303925061303b565b6001836020036101000a038019825116818451168082178552505050505050905001915050908152602001604051809103902060020180549050811015613190573373ffffffffffffffffffffffffffffffffffffffff166002856040518082805190602001908083835b6020831015156130f057805182526020820191506020810190506020830392506130cb565b6001836020036101000a03801982511681845116808217855250505050505090500191505090815260200160405180910390206002018281548110151561313357fe5b9060005260206000200160009054906101000a900473ffffffffffffffffffffffffffffffffffffffff1673ffffffffffffffffffffffffffffffffffffffff1614156131835760019150613190565b8080600101915050613028565b60018214156131a257600192506131a7565b600092505b5050919050565b828054600181600116156101000203166002900490600052602060002090601f016020900481019282601f106131ef57805160ff191683800117855561321d565b8280016001018555821561321d579182015b8281111561321c578251825591602001919060010190613201565b5b50905061322a919061322e565b5090565b61325091905b8082111561324c576000816000905550600101613234565b5090565b905600a165627a7a72305820d45b721ccf5c0733f1643b2ae31a9b6915d35992794f456c29a50e1a72cd3adb0029",
  "source": "pragma solidity ^0.4.15;\r\ncontract VehicleDataManagement {\r\n    \r\n    event Creation(\r\n        address indexed from,\r\n        string indexed vin\r\n    );\r\n\r\n    \r\n    event Transfer(\r\n        address indexed from,\r\n        address indexed to,\r\n        string indexed vin\r\n    );\r\n\r\n    //an event is emitted  , it stores the arguments passed in transaction log\r\n\r\n    \r\n    \r\n    struct Car { \r\n        string vin;\r\n        address owner;\r\n\tstring brand_name;\r\n        string model_name;\r\n        string purchase_date;\r\n        string owner_name;\r\n        bool isFirstHandOwner;\r\n    }\r\n\r\n    struct Maintenance {\r\n        string vin;\r\n        string vehicleCondition;\r\n        uint currentOdometer;\r\n        uint currentEngineHours;\r\n        string lastService;\r\n        string ServiceType;\r\n        bool partsReplaced;\r\n        uint cost;\r\n        bool isUnderInsurance;\r\n        string Message;\r\n        \r\n    }\r\n\r\n    struct Auther {  \r\n           \r\n            string id; //id is same as vin of a car\r\n            address owner; \r\n            address[] auth_address; //array will contain all account address addedd by a particular car owner\r\n    }\r\n\r\n\r\n    address[] users_address;//array to store user address by admin\r\n\r\n\r\n\r\n    address[] mech_address;//array to store mechanic address by admin\r\n\r\n\r\n    mapping(string =>Auther) Auth_address; // id is mapped to Auther struct (key -> value pair)\r\n    mapping (string => Maintenance) maintenance;\r\n    mapping (string => Car) cars;\r\n    \r\n   constructor() public {} //constructor\r\n    \r\n    \r\n     address addOwn = 0x5B38Da6a701c568545dCfcB03FcB875f56beddC4; //address of owner\r\n\r\n     function addUser(address add) public { //admin can add a user to the system\r\n         assert(msg.sender == 0x5B38Da6a701c568545dCfcB03FcB875f56beddC4);\r\n         //users_gmail.push(gmail);\r\n         users_address.push(add); //pusing address of user to array\r\n         \r\n     }\r\n\r\n function addMechanic(address add) public {//admin can add a mechanic to the system\r\n         assert(msg.sender == 0x5B38Da6a701c568545dCfcB03FcB875f56beddC4);\r\n       \r\n         mech_address.push(add);//pusing address of mechanic to array\r\n         \r\n     }\r\n\r\n      function addAuther(string id ) internal { \r\n        Auth_address[id].id = id;\r\n        Auth_address[id].owner = msg.sender;\r\n        Auth_address[id].auth_address.push(msg.sender);\r\n        \r\n         \r\n     }\r\n\r\n     function GrantViewPermission(string id , address add) onlyUser() { //users can add authorized users who can view their maintenance report\r\n         Auther storage transferObject = Auth_address[id];\r\n         assert(Auth_address[id].owner == msg.sender);\r\n      \r\n        transferObject.auth_address.push(add);\r\n        \r\n         \r\n     }\r\n\r\n       \r\n     function viewAllowed(string id) public view returns (address[] memory) {//users can view users who can view their maintenance report\r\n          Auther storage transferObject = Auth_address[id];\r\n         assert(transferObject.owner == msg.sender);\r\n     return transferObject.auth_address;\r\n    }\r\n\r\n\r\n  function RevokeViewPermission(string id , uint256 index) onlyUser() {//users can remove authorized users who can view their maintenance report\r\n         Auther storage transferObject = Auth_address[id];\r\n         assert(Auth_address[id].owner == msg.sender);\r\n         assert(index!=0);\r\n         address element = transferObject.auth_address[index];\r\ntransferObject.auth_address[index] = transferObject.auth_address[transferObject.auth_address.length - 1];\r\ndelete transferObject.auth_address[transferObject.auth_address.length - 1];\r\n\r\n        \r\n         \r\n     }\r\n\r\n     \r\n\r\n\r\n    function addCar(string vin,string brand_name, string model_name, string purchase_date, string owner_name, bool isFirstHandOwner) public  {\r\n        //to add a car to the system..only for users whose are added into system by admin\r\n\r\n        assert(cars[vin].owner == 0x0);// assert that owner value is not defined already\r\n       \r\n        cars[vin].vin = vin;\r\n        cars[vin].owner = msg.sender;\r\n\tcars[vin].brand_name = brand_name;\r\n\tcars[vin].model_name = model_name;\r\n\tcars[vin].purchase_date = purchase_date;\r\n    cars[vin].owner_name = owner_name;\r\n        cars[vin].isFirstHandOwner = isFirstHandOwner;\r\n\r\n        maintenance[vin].vin = vin; \r\n        // maintenace report also created with id==vin but other value of struct maintenace will be default initially\r\n        \r\n        addAuther(vin); //so that car owner can view his maintenace report\r\n\r\n\temit Creation(msg.sender, vin);//calling the event creation\r\n    }\r\n    \r\n    \r\n   function updateMaintenanceReport(string vin , string vehicleCondition, uint currentOdometer, uint currentEngineHours, string lastService, string ServiceType,bool partsReplaced,uint cost,bool isUnderInsurance, string Message ) public onlyMechanic() {\r\n       //to update maintenance report ...only accessible by mechanic who has been added into system by admin\r\n       \r\n       if(onlyAllowed(vin) == true){ //if condition specified so that only authorized mechanic can update maintenace report\r\n\r\n        Maintenance storage transferObject = maintenance[vin];\r\n        transferObject.vehicleCondition = vehicleCondition;\r\n        transferObject.currentOdometer = currentOdometer;\r\n        transferObject.currentEngineHours = currentEngineHours;\r\n       transferObject.lastService = lastService ;\r\n       transferObject.ServiceType = ServiceType;\r\n       transferObject.partsReplaced = partsReplaced;\r\n       transferObject.cost = cost;\r\n        transferObject.isUnderInsurance = isUnderInsurance;\r\n         transferObject.Message = Message;\r\n    }\r\n    }\r\n    \r\n   \r\n    function transferOwnership(string vin, address owner , string new_owner_name) public onlyUser() { \r\n        //to tranfer ownership of a car to another user in the system\r\n\r\n        Car storage transferObject = cars[vin];\r\n        assert(transferObject.owner == msg.sender); \r\n        transferObject.owner = owner;\r\n        transferObject.owner_name = new_owner_name;//new owner name\r\n        transferObject.isFirstHandOwner = false; //after the tranfer of ownership this variable value will become false\r\n\r\n        Auther storage transferObject2 = Auth_address[vin];\r\n        assert(transferObject2.owner == msg.sender);\r\n        transferObject2.owner = owner;\r\n        transferObject2.auth_address[0] = owner;\r\n        emit Transfer(msg.sender, owner, vin);//call event Transfer\r\n\r\n\r\n    }\r\n    \r\n   \r\n    function viewCar(string vin) onlyUser() view returns(address owner,  string brand_name, string model_name , string purchase_date,  string owner_name , bool isFirstHandOwner)  {\r\n        //only users added into system can view a car detail\r\n\r\n        Car storage transferObject = cars[vin];\r\n        //assert(transferObject.owner == msg.sender); \r\n        owner = cars[vin].owner;\r\n        brand_name = cars[vin].brand_name;\r\n        model_name = cars[vin]. model_name ;\r\n        purchase_date = cars[vin].purchase_date;\r\n        owner_name = cars[vin].owner_name;\r\n        isFirstHandOwner = cars[vin].isFirstHandOwner;\r\n    }\r\n\r\n     function viewMaintenaceReport(string vin)  public view returns( string vehicleCondition, uint currentOdometer, uint currentEngineHours, string lastService, string ServiceType,bool partsReplaced,uint cost,bool isUnderInsurance, string Message)  {\r\n        \r\n\r\n           if(onlyAllowed(cars[vin].vin) == true){ //if condition specified so that only authorized user/mechanic can view maintenance report\r\n\r\n        Maintenance storage transferObject = maintenance[vin];\r\n        vehicleCondition = maintenance[vin].vehicleCondition;\r\n        currentOdometer = maintenance[vin].currentOdometer;\r\n        currentEngineHours = maintenance[vin].currentEngineHours;\r\n       lastService = maintenance[vin].lastService ;\r\n        ServiceType = maintenance[vin].ServiceType;\r\n       partsReplaced = maintenance[vin].partsReplaced;\r\n        cost = maintenance[vin].cost;\r\n        isUnderInsurance = maintenance[vin].isUnderInsurance;\r\n         Message = maintenance[vin].Message;\r\n    }\r\n    }\r\n\r\n\r\n    modifier onlyMechanic(){ //modifier \r\n        uint flag = 0;\r\n        for(uint256 j=0;j<mech_address.length;j++){\r\n            if(mech_address[j] == msg.sender){\r\n                flag = 1;\r\n                break;\r\n            }\r\n        }\r\n        require(flag == 1);\r\n        _;\r\n        }\r\n\r\n        modifier onlyUser(){ //modifier\r\n        uint flag = 0;\r\n             for(uint256 j=0;j<users_address.length;j++){\r\n            if(users_address[j] == msg.sender){\r\n                flag = 1;\r\n                break;\r\n            }\r\n        }\r\n        require(flag == 1);\r\n        _;\r\n        }\r\n\r\n    function onlyAllowed(string id) internal returns (bool){ //function to restrict access...used internal keyword\r\n        uint flag = 0;\r\n             for(uint256 j=0;j<Auth_address[id].auth_address.length;j++){\r\n                 //id is same as vin for car for a particular owner\r\n                 //auth_address is array which contain all users allowed by car owner to view mainteanace report\r\n            if(Auth_address[id].auth_address[j] == msg.sender){\r\n                flag = 1;\r\n                break;\r\n            }\r\n        }\r\n        if(flag==1)\r\n        return true;\r\n        else\r\n        return false;\r\n        }\r\n        \r\n    \r\n}",
  "sourcePath": "C:\\Users\\praty\\Downloads\\Land-registration-using-Ethereum-Blockchain--main\\Land-registration-using-Ethereum-Blockchain--main\\contracts\\Structregistry.sol",
  "compiler": {
    "name": "solc",
    "version": "0.4.26+commit.4563c3fc.Emscripten.clang"
  },
  "schemaVersion": "3.4.7",
  "updatedAt": "2022-05-27T17:57:57.279Z",
  "devdoc": {
    "methods": {}
  },
  "userdoc": {
    "methods": {}
  }
}